{
  "contractName": "TBookFactory",
  "abi": [
    {
      "inputs": [],
      "stateMutability": "nonpayable",
      "type": "constructor"
    },
    {
      "anonymous": false,
      "inputs": [
        {
          "indexed": true,
          "internalType": "address",
          "name": "owner",
          "type": "address"
        },
        {
          "indexed": true,
          "internalType": "address",
          "name": "approved",
          "type": "address"
        },
        {
          "indexed": true,
          "internalType": "uint256",
          "name": "tokenId",
          "type": "uint256"
        }
      ],
      "name": "Approval",
      "type": "event"
    },
    {
      "anonymous": false,
      "inputs": [
        {
          "indexed": true,
          "internalType": "address",
          "name": "owner",
          "type": "address"
        },
        {
          "indexed": true,
          "internalType": "address",
          "name": "operator",
          "type": "address"
        },
        {
          "indexed": false,
          "internalType": "bool",
          "name": "approved",
          "type": "bool"
        }
      ],
      "name": "ApprovalForAll",
      "type": "event"
    },
    {
      "anonymous": false,
      "inputs": [
        {
          "indexed": true,
          "internalType": "address",
          "name": "previousOwner",
          "type": "address"
        },
        {
          "indexed": true,
          "internalType": "address",
          "name": "newOwner",
          "type": "address"
        }
      ],
      "name": "OwnershipTransferred",
      "type": "event"
    },
    {
      "anonymous": false,
      "inputs": [
        {
          "indexed": true,
          "internalType": "address",
          "name": "from",
          "type": "address"
        },
        {
          "indexed": true,
          "internalType": "address",
          "name": "to",
          "type": "address"
        },
        {
          "indexed": true,
          "internalType": "uint256",
          "name": "tokenId",
          "type": "uint256"
        }
      ],
      "name": "Transfer",
      "type": "event"
    },
    {
      "inputs": [
        {
          "internalType": "address",
          "name": "to",
          "type": "address"
        },
        {
          "internalType": "uint256",
          "name": "tokenId",
          "type": "uint256"
        }
      ],
      "name": "approve",
      "outputs": [],
      "stateMutability": "nonpayable",
      "type": "function"
    },
    {
      "inputs": [
        {
          "internalType": "address",
          "name": "owner",
          "type": "address"
        }
      ],
      "name": "balanceOf",
      "outputs": [
        {
          "internalType": "uint256",
          "name": "",
          "type": "uint256"
        }
      ],
      "stateMutability": "view",
      "type": "function",
      "constant": true
    },
    {
      "inputs": [
        {
          "internalType": "uint256",
          "name": "tokenId",
          "type": "uint256"
        }
      ],
      "name": "getApproved",
      "outputs": [
        {
          "internalType": "address",
          "name": "",
          "type": "address"
        }
      ],
      "stateMutability": "view",
      "type": "function",
      "constant": true
    },
    {
      "inputs": [
        {
          "internalType": "address",
          "name": "owner",
          "type": "address"
        },
        {
          "internalType": "address",
          "name": "operator",
          "type": "address"
        }
      ],
      "name": "isApprovedForAll",
      "outputs": [
        {
          "internalType": "bool",
          "name": "",
          "type": "bool"
        }
      ],
      "stateMutability": "view",
      "type": "function",
      "constant": true
    },
    {
      "inputs": [],
      "name": "name",
      "outputs": [
        {
          "internalType": "string",
          "name": "",
          "type": "string"
        }
      ],
      "stateMutability": "view",
      "type": "function",
      "constant": true
    },
    {
      "inputs": [],
      "name": "owner",
      "outputs": [
        {
          "internalType": "address",
          "name": "",
          "type": "address"
        }
      ],
      "stateMutability": "view",
      "type": "function",
      "constant": true
    },
    {
      "inputs": [
        {
          "internalType": "uint256",
          "name": "tokenId",
          "type": "uint256"
        }
      ],
      "name": "ownerOf",
      "outputs": [
        {
          "internalType": "address",
          "name": "",
          "type": "address"
        }
      ],
      "stateMutability": "view",
      "type": "function",
      "constant": true
    },
    {
      "inputs": [],
      "name": "renounceOwnership",
      "outputs": [],
      "stateMutability": "nonpayable",
      "type": "function"
    },
    {
      "inputs": [
        {
          "internalType": "address",
          "name": "operator",
          "type": "address"
        },
        {
          "internalType": "bool",
          "name": "approved",
          "type": "bool"
        }
      ],
      "name": "setApprovalForAll",
      "outputs": [],
      "stateMutability": "nonpayable",
      "type": "function"
    },
    {
      "inputs": [
        {
          "internalType": "bytes4",
          "name": "interfaceId",
          "type": "bytes4"
        }
      ],
      "name": "supportsInterface",
      "outputs": [
        {
          "internalType": "bool",
          "name": "",
          "type": "bool"
        }
      ],
      "stateMutability": "view",
      "type": "function",
      "constant": true
    },
    {
      "inputs": [],
      "name": "symbol",
      "outputs": [
        {
          "internalType": "string",
          "name": "",
          "type": "string"
        }
      ],
      "stateMutability": "view",
      "type": "function",
      "constant": true
    },
    {
      "inputs": [
        {
          "internalType": "uint256",
          "name": "tokenId",
          "type": "uint256"
        }
      ],
      "name": "tokenURI",
      "outputs": [
        {
          "internalType": "string",
          "name": "",
          "type": "string"
        }
      ],
      "stateMutability": "view",
      "type": "function",
      "constant": true
    },
    {
      "inputs": [
        {
          "internalType": "address",
          "name": "from",
          "type": "address"
        },
        {
          "internalType": "address",
          "name": "to",
          "type": "address"
        },
        {
          "internalType": "uint256",
          "name": "tokenId",
          "type": "uint256"
        }
      ],
      "name": "transferFrom",
      "outputs": [],
      "stateMutability": "nonpayable",
      "type": "function"
    },
    {
      "inputs": [
        {
          "internalType": "address",
          "name": "newOwner",
          "type": "address"
        }
      ],
      "name": "transferOwnership",
      "outputs": [],
      "stateMutability": "nonpayable",
      "type": "function"
    },
    {
      "inputs": [
        {
          "internalType": "uint256",
          "name": "tokenId",
          "type": "uint256"
        }
      ],
      "name": "getOwnerOf",
      "outputs": [
        {
          "internalType": "address",
          "name": "",
          "type": "address"
        }
      ],
      "stateMutability": "view",
      "type": "function",
      "constant": true
    },
    {
      "inputs": [
        {
          "internalType": "uint256",
          "name": "tbsn",
          "type": "uint256"
        },
        {
          "internalType": "uint256",
          "name": "copyNumber",
          "type": "uint256"
        }
      ],
      "name": "getId",
      "outputs": [
        {
          "internalType": "uint256",
          "name": "",
          "type": "uint256"
        }
      ],
      "stateMutability": "view",
      "type": "function",
      "constant": true
    },
    {
      "inputs": [
        {
          "internalType": "uint256",
          "name": "id",
          "type": "uint256"
        }
      ],
      "name": "tbsnFromId",
      "outputs": [
        {
          "internalType": "uint256",
          "name": "",
          "type": "uint256"
        }
      ],
      "stateMutability": "view",
      "type": "function",
      "constant": true
    },
    {
      "inputs": [
        {
          "internalType": "uint256",
          "name": "id",
          "type": "uint256"
        }
      ],
      "name": "copyNumberFromId",
      "outputs": [
        {
          "internalType": "uint256",
          "name": "",
          "type": "uint256"
        }
      ],
      "stateMutability": "view",
      "type": "function",
      "constant": true
    },
    {
      "inputs": [
        {
          "internalType": "address",
          "name": "userAddress",
          "type": "address"
        }
      ],
      "name": "isUserHolder",
      "outputs": [
        {
          "internalType": "bool",
          "name": "",
          "type": "bool"
        }
      ],
      "stateMutability": "view",
      "type": "function",
      "constant": true
    },
    {
      "inputs": [
        {
          "internalType": "uint256",
          "name": "tbsn",
          "type": "uint256"
        },
        {
          "internalType": "address",
          "name": "userAddress",
          "type": "address"
        }
      ],
      "name": "userHoldsTBSN",
      "outputs": [
        {
          "internalType": "bool",
          "name": "",
          "type": "bool"
        }
      ],
      "stateMutability": "view",
      "type": "function",
      "constant": true
    },
    {
      "inputs": [
        {
          "internalType": "address",
          "name": "from",
          "type": "address"
        },
        {
          "internalType": "address",
          "name": "to",
          "type": "address"
        },
        {
          "internalType": "uint256",
          "name": "tokenId",
          "type": "uint256"
        }
      ],
      "name": "safeTransferFrom",
      "outputs": [],
      "stateMutability": "nonpayable",
      "type": "function"
    },
    {
      "inputs": [
        {
          "internalType": "address",
          "name": "from",
          "type": "address"
        },
        {
          "internalType": "address",
          "name": "to",
          "type": "address"
        },
        {
          "internalType": "uint256",
          "name": "tokenId",
          "type": "uint256"
        },
        {
          "internalType": "bytes",
          "name": "_data",
          "type": "bytes"
        }
      ],
      "name": "safeTransferFrom",
      "outputs": [],
      "stateMutability": "nonpayable",
      "type": "function"
    },
    {
      "inputs": [
        {
          "internalType": "uint256",
          "name": "tbsn",
          "type": "uint256"
        }
      ],
      "name": "getPrice",
      "outputs": [
        {
          "internalType": "uint256",
          "name": "",
          "type": "uint256"
        }
      ],
      "stateMutability": "view",
      "type": "function",
      "constant": true
    },
    {
      "inputs": [
        {
          "internalType": "uint256",
          "name": "tbsn",
          "type": "uint256"
        },
        {
          "internalType": "address",
          "name": "collector",
          "type": "address"
        }
      ],
      "name": "collect",
      "outputs": [
        {
          "internalType": "uint256",
          "name": "",
          "type": "uint256"
        }
      ],
      "stateMutability": "payable",
      "type": "function",
      "payable": true
    },
    {
      "inputs": [
        {
          "internalType": "uint256",
          "name": "tbsn",
          "type": "uint256"
        },
        {
          "internalType": "address payable",
          "name": "author",
          "type": "address"
        }
      ],
      "name": "publish",
      "outputs": [],
      "stateMutability": "nonpayable",
      "type": "function"
    },
    {
      "inputs": [
        {
          "internalType": "uint256",
          "name": "id",
          "type": "uint256"
        }
      ],
      "name": "getCopyInfo",
      "outputs": [
        {
          "components": [
            {
              "internalType": "bool",
              "name": "exists",
              "type": "bool"
            },
            {
              "internalType": "uint256",
              "name": "tbsn",
              "type": "uint256"
            },
            {
              "internalType": "uint256",
              "name": "copyNumber",
              "type": "uint256"
            },
            {
              "internalType": "uint256",
              "name": "numTransactions",
              "type": "uint256"
            },
            {
              "internalType": "uint256",
              "name": "nextLinkId",
              "type": "uint256"
            },
            {
              "internalType": "uint256",
              "name": "prevLinkId",
              "type": "uint256"
            },
            {
              "internalType": "address",
              "name": "initHolder",
              "type": "address"
            },
            {
              "internalType": "address",
              "name": "currentHolder",
              "type": "address"
            },
            {
              "internalType": "address",
              "name": "lastHolder",
              "type": "address"
            }
          ],
          "internalType": "struct TBookFactory.CopyInfo",
          "name": "",
          "type": "tuple"
        }
      ],
      "stateMutability": "view",
      "type": "function",
      "constant": true
    },
    {
      "inputs": [
        {
          "internalType": "address",
          "name": "userAddress",
          "type": "address"
        }
      ],
      "name": "getUserInfo",
      "outputs": [
        {
          "internalType": "bool",
          "name": "",
          "type": "bool"
        },
        {
          "internalType": "uint256",
          "name": "",
          "type": "uint256"
        },
        {
          "internalType": "uint256",
          "name": "",
          "type": "uint256"
        },
        {
          "internalType": "uint256",
          "name": "",
          "type": "uint256"
        }
      ],
      "stateMutability": "view",
      "type": "function",
      "constant": true
    },
    {
      "inputs": [
        {
          "internalType": "uint256",
          "name": "tbsn",
          "type": "uint256"
        }
      ],
      "name": "getTBookExists",
      "outputs": [
        {
          "internalType": "bool",
          "name": "",
          "type": "bool"
        }
      ],
      "stateMutability": "view",
      "type": "function",
      "constant": true
    }
  ],
  "bytecode": "0x60806040523480156200001157600080fd5b506040518060400160405280600581526020017f54426f6f6b0000000000000000000000000000000000000000000000000000008152506040518060400160405280600381526020017f54424b00000000000000000000000000000000000000000000000000000000008152506200009e62000092620000e260201b60201c565b620000ea60201b60201c565b8160019080519060200190620000b6929190620001ae565b508060029080519060200190620000cf929190620001ae565b505050620186a0600c81905550620002c2565b600033905090565b60008060009054906101000a900473ffffffffffffffffffffffffffffffffffffffff169050816000806101000a81548173ffffffffffffffffffffffffffffffffffffffff021916908373ffffffffffffffffffffffffffffffffffffffff1602179055508173ffffffffffffffffffffffffffffffffffffffff168173ffffffffffffffffffffffffffffffffffffffff167f8be0079c531659141344cd1fd0a4f28419497f9722a3daafe3b4186f6b6457e060405160405180910390a35050565b828054620001bc906200028d565b90600052602060002090601f016020900481019282620001e057600085556200022c565b82601f10620001fb57805160ff19168380011785556200022c565b828001600101855582156200022c579182015b828111156200022b5782518255916020019190600101906200020e565b5b5090506200023b91906200023f565b5090565b5b808211156200025a57600081600090555060010162000240565b5090565b7f4e487b7100000000000000000000000000000000000000000000000000000000600052602260045260246000fd5b60006002820490506001821680620002a657607f821691505b602082108103620002bc57620002bb6200025e565b5b50919050565b61445780620002d26000396000f3fe6080604052600436106101b75760003560e01c806383638710116100ec578063b88d4fde1161008a578063e757223011610064578063e757223014610696578063e7af4757146106d3578063e985e9c514610710578063f2fde38b1461074d576101b7565b8063b88d4fde146105f3578063c87b56dd1461061c578063dc8b5c7a14610659576101b7565b80638da5cb5b116100c65780638da5cb5b1461053757806395d89b41146105625780639a4b0f2b1461058d578063a22cb465146105ca576101b7565b806383638710146104a15780638a0dbe7a146104de5780638d3c100a14610507576101b7565b806342842e0e1161015957806364f7e9291161013357806364f7e929146103d35780636847e3091461041057806370a082311461044d578063715018a61461048a576101b7565b806342842e0e1461032d5780636352211e146103565780636386c1c714610393576101b7565b8063095ea7b311610195578063095ea7b31461026157806323b872dd1461028a57806324fc65ed146102b35780632c4b5c63146102f0576101b7565b806301ffc9a7146101bc57806306fdde03146101f9578063081812fc14610224575b600080fd5b3480156101c857600080fd5b506101e360048036038101906101de9190612e42565b610776565b6040516101f09190612e8a565b60405180910390f35b34801561020557600080fd5b5061020e610858565b60405161021b9190612f3e565b60405180910390f35b34801561023057600080fd5b5061024b60048036038101906102469190612f96565b6108ea565b6040516102589190613004565b60405180910390f35b34801561026d57600080fd5b506102886004803603810190610283919061304b565b61096f565b005b34801561029657600080fd5b506102b160048036038101906102ac919061308b565b610a86565b005b3480156102bf57600080fd5b506102da60048036038101906102d591906130de565b610ae6565b6040516102e7919061312d565b60405180910390f35b3480156102fc57600080fd5b5061031760048036038101906103129190612f96565b610b11565b6040516103249190612e8a565b60405180910390f35b34801561033957600080fd5b50610354600480360381019061034f919061308b565b610b3e565b005b34801561036257600080fd5b5061037d60048036038101906103789190612f96565b610f91565b60405161038a9190613004565b60405180910390f35b34801561039f57600080fd5b506103ba60048036038101906103b59190613148565b611042565b6040516103ca9493929190613175565b60405180910390f35b3480156103df57600080fd5b506103fa60048036038101906103f59190613148565b6110bc565b6040516104079190612e8a565b60405180910390f35b34801561041c57600080fd5b5061043760048036038101906104329190612f96565b61113c565b604051610444919061312d565b60405180910390f35b34801561045957600080fd5b50610474600480360381019061046f9190613148565b611153565b604051610481919061312d565b60405180910390f35b34801561049657600080fd5b5061049f61120a565b005b3480156104ad57600080fd5b506104c860048036038101906104c39190612f96565b611292565b6040516104d59190613004565b60405180910390f35b3480156104ea57600080fd5b50610505600480360381019061050091906131f8565b6112d2565b005b610521600480360381019061051c9190613238565b61140d565b60405161052e919061312d565b60405180910390f35b34801561054357600080fd5b5061054c61162a565b6040516105599190613004565b60405180910390f35b34801561056e57600080fd5b50610577611653565b6040516105849190612f3e565b60405180910390f35b34801561059957600080fd5b506105b460048036038101906105af9190612f96565b6116e5565b6040516105c1919061312d565b60405180910390f35b3480156105d657600080fd5b506105f160048036038101906105ec91906132a4565b6116fc565b005b3480156105ff57600080fd5b5061061a60048036038101906106159190613419565b611712565b005b34801561062857600080fd5b50610643600480360381019061063e9190612f96565b611774565b6040516106509190612f3e565b60405180910390f35b34801561066557600080fd5b50610680600480360381019061067b9190613238565b61181b565b60405161068d9190612e8a565b60405180910390f35b3480156106a257600080fd5b506106bd60048036038101906106b89190612f96565b6118ad565b6040516106ca919061312d565b60405180910390f35b3480156106df57600080fd5b506106fa60048036038101906106f59190612f96565b61195b565b6040516107079190613580565b60405180910390f35b34801561071c57600080fd5b506107376004803603810190610732919061359c565b611ad8565b6040516107449190612e8a565b60405180910390f35b34801561075957600080fd5b50610774600480360381019061076f9190613148565b611b6c565b005b60007f80ac58cd000000000000000000000000000000000000000000000000000000007bffffffffffffffffffffffffffffffffffffffffffffffffffffffff1916827bffffffffffffffffffffffffffffffffffffffffffffffffffffffff1916148061084157507f5b5e139f000000000000000000000000000000000000000000000000000000007bffffffffffffffffffffffffffffffffffffffffffffffffffffffff1916827bffffffffffffffffffffffffffffffffffffffffffffffffffffffff1916145b80610851575061085082611c63565b5b9050919050565b6060600180546108679061360b565b80601f01602080910402602001604051908101604052809291908181526020018280546108939061360b565b80156108e05780601f106108b5576101008083540402835291602001916108e0565b820191906000526020600020905b8154815290600101906020018083116108c357829003601f168201915b5050505050905090565b60006108f582611ccd565b610934576040517f08c379a000000000000000000000000000000000000000000000000000000000815260040161092b906136ae565b60405180910390fd5b6005600083815260200190815260200160002060009054906101000a900473ffffffffffffffffffffffffffffffffffffffff169050919050565b600061097a82610f91565b90508073ffffffffffffffffffffffffffffffffffffffff168373ffffffffffffffffffffffffffffffffffffffff16036109ea576040517f08c379a00000000000000000000000000000000000000000000000000000000081526004016109e190613740565b60405180910390fd5b8073ffffffffffffffffffffffffffffffffffffffff16610a09611d39565b73ffffffffffffffffffffffffffffffffffffffff161480610a385750610a3781610a32611d39565b611ad8565b5b610a77576040517f08c379a0000000000000000000000000000000000000000000000000000000008152600401610a6e906137d2565b60405180910390fd5b610a818383611d41565b505050565b610a97610a91611d39565b82611dfa565b610ad6576040517f08c379a0000000000000000000000000000000000000000000000000000000008152600401610acd90613864565b60405180910390fd5b610ae1838383611ed8565b505050565b600080600c5484610af791906138b3565b90508281610b05919061390d565b90508091505092915050565b6000600a600083815260200190815260200160002060000160009054906101000a900460ff169050919050565b6000610b49826116e5565b90506000600a600083815260200190815260200160002060040160008673ffffffffffffffffffffffffffffffffffffffff1673ffffffffffffffffffffffffffffffffffffffff16815260200190815260200160002054118015610c0157506000600860008673ffffffffffffffffffffffffffffffffffffffff1673ffffffffffffffffffffffffffffffffffffffff168152602001908152602001600020600201600083815260200190815260200160002054115b610c0a57600080fd5b6000600960008481526020019081526020016000209050848160080160006101000a81548173ffffffffffffffffffffffffffffffffffffffff021916908373ffffffffffffffffffffffffffffffffffffffff160217905550838160070160006101000a81548173ffffffffffffffffffffffffffffffffffffffff021916908373ffffffffffffffffffffffffffffffffffffffff160217905550806003016000815480929190610cbc90613963565b91905055506000600a600084815260200190815260200160002090508060040160008773ffffffffffffffffffffffffffffffffffffffff1673ffffffffffffffffffffffffffffffffffffffff1681526020019081526020016000206000815480929190610d2a906139ab565b91905055508060040160008673ffffffffffffffffffffffffffffffffffffffff1673ffffffffffffffffffffffffffffffffffffffff1681526020019081526020016000206000815480929190610d8190613963565b91905055506000600860008873ffffffffffffffffffffffffffffffffffffffff1673ffffffffffffffffffffffffffffffffffffffff16815260200190815260200160002090506000600860008873ffffffffffffffffffffffffffffffffffffffff1673ffffffffffffffffffffffffffffffffffffffff16815260200190815260200160002090508160020160008681526020019081526020016000206000815480929190610e32906139ab565b9190505550816001016000815480929190610e4c906139ab565b91905055508060020160008681526020019081526020016000206000815480929190610e7790613963565b9190505550806001016000815480929190610e9190613963565b919050555060008460050154905060008560040154905060008203610ebe57808460030181905550610eda565b8060096000848152602001908152602001600020600401819055505b60008103610eec578184600401819055505b6000836004015490508087600501819055506000876004018190555060008103610f1e57888460030181905550610f3a565b8860096000838152602001908152602001600020600401819055505b888460040181905550610f848b8b8b6040518060400160405280600181526020017f200000000000000000000000000000000000000000000000000000000000000081525061213e565b5050505050505050505050565b6000806003600084815260200190815260200160002060009054906101000a900473ffffffffffffffffffffffffffffffffffffffff169050600073ffffffffffffffffffffffffffffffffffffffff168173ffffffffffffffffffffffffffffffffffffffff1603611039576040517f08c379a000000000000000000000000000000000000000000000000000000000815260040161103090613a46565b60405180910390fd5b80915050919050565b6000806000806000600860008773ffffffffffffffffffffffffffffffffffffffff1673ffffffffffffffffffffffffffffffffffffffff16815260200190815260200160002090508060000160009054906101000a900460ff168160010154826003015483600401549450945094509450509193509193565b600080600860008473ffffffffffffffffffffffffffffffffffffffff1673ffffffffffffffffffffffffffffffffffffffff16815260200190815260200160002090508060000160009054906101000a900460ff168015611122575060008160010154115b15611131576001915050611137565b60009150505b919050565b6000600c548261114c9190613a95565b9050919050565b60008073ffffffffffffffffffffffffffffffffffffffff168273ffffffffffffffffffffffffffffffffffffffff16036111c3576040517f08c379a00000000000000000000000000000000000000000000000000000000081526004016111ba90613b38565b60405180910390fd5b600460008373ffffffffffffffffffffffffffffffffffffffff1673ffffffffffffffffffffffffffffffffffffffff168152602001908152602001600020549050919050565b611212611d39565b73ffffffffffffffffffffffffffffffffffffffff1661123061162a565b73ffffffffffffffffffffffffffffffffffffffff1614611286576040517f08c379a000000000000000000000000000000000000000000000000000000000815260040161127d90613ba4565b60405180910390fd5b611290600061219a565b565b60006009600083815260200190815260200160002060070160009054906101000a900473ffffffffffffffffffffffffffffffffffffffff169050919050565b6000600a600084815260200190815260200160002090508060000160009054906101000a900460ff161561133b576040517f08c379a000000000000000000000000000000000000000000000000000000000815260040161133290613c10565b60405180910390fd5b61134361162a565b73ffffffffffffffffffffffffffffffffffffffff163373ffffffffffffffffffffffffffffffffffffffff161461137a57600080fd5b6001600a600085815260200190815260200160002060000160006101000a81548160ff02191690831515021790555081600a600085815260200190815260200160002060030160006101000a81548173ffffffffffffffffffffffffffffffffffffffff021916908373ffffffffffffffffffffffffffffffffffffffff160217905550611408838361225e565b505050565b6000600a600084815260200190815260200160002060000160009054906101000a900460ff16611472576040517f08c379a000000000000000000000000000000000000000000000000000000000815260040161146990613c7c565b60405180910390fd5b600066038d7ea4c68000611485856118ad565b61148f91906138b3565b9050803410156114d4576040517f08c379a00000000000000000000000000000000000000000000000000000000081526004016114cb90613d0e565b60405180910390fd5b600060646050836114e591906138b3565b6114ef9190613d2e565b9050600081836114ff9190613d5f565b90506000600a600088815260200190815260200160002060030160009054906101000a900473ffffffffffffffffffffffffffffffffffffffff169050611546878761225e565b8073ffffffffffffffffffffffffffffffffffffffff166108fc849081150290604051600060405180830381858888f1935050505015801561158c573d6000803e3d6000fd5b5061159561162a565b73ffffffffffffffffffffffffffffffffffffffff166108fc839081150290604051600060405180830381858888f193505050501580156115da573d6000803e3d6000fd5b50600860008773ffffffffffffffffffffffffffffffffffffffff1673ffffffffffffffffffffffffffffffffffffffff1681526020019081526020016000206004015494505050505092915050565b60008060009054906101000a900473ffffffffffffffffffffffffffffffffffffffff16905090565b6060600280546116629061360b565b80601f016020809104026020016040519081016040528092919081815260200182805461168e9061360b565b80156116db5780601f106116b0576101008083540402835291602001916116db565b820191906000526020600020905b8154815290600101906020018083116116be57829003601f168201915b5050505050905090565b6000600c54826116f59190613d2e565b9050919050565b61170e611707611d39565b838361259f565b5050565b61172361171d611d39565b83611dfa565b611762576040517f08c379a000000000000000000000000000000000000000000000000000000000815260040161175990613864565b60405180910390fd5b61176e8484848461213e565b50505050565b606061177f82611ccd565b6117be576040517f08c379a00000000000000000000000000000000000000000000000000000000081526004016117b590613e05565b60405180910390fd5b60006117c861270b565b905060008151116117e85760405180602001604052806000815250611813565b806117f284612722565b604051602001611803929190613e61565b6040516020818303038152906040525b915050919050565b600080600a600085815260200190815260200160002090508060000160009054906101000a900460ff168015611892575060008160040160008573ffffffffffffffffffffffffffffffffffffffff1673ffffffffffffffffffffffffffffffffffffffff16815260200190815260200160002054115b156118a15760019150506118a7565b60009150505b92915050565b6000600a600083815260200190815260200160002060000160009054906101000a900460ff16611912576040517f08c379a000000000000000000000000000000000000000000000000000000000815260040161190990613ed1565b60405180910390fd5b600080600a90506000600a60008681526020019081526020016000206002015490506000828261194291906138b3565b8461194d919061390d565b905080945050505050919050565b611963612d46565b60096000838152602001908152602001600020604051806101200160405290816000820160009054906101000a900460ff1615151515815260200160018201548152602001600282015481526020016003820154815260200160048201548152602001600582015481526020016006820160009054906101000a900473ffffffffffffffffffffffffffffffffffffffff1673ffffffffffffffffffffffffffffffffffffffff1673ffffffffffffffffffffffffffffffffffffffff1681526020016007820160009054906101000a900473ffffffffffffffffffffffffffffffffffffffff1673ffffffffffffffffffffffffffffffffffffffff1673ffffffffffffffffffffffffffffffffffffffff1681526020016008820160009054906101000a900473ffffffffffffffffffffffffffffffffffffffff1673ffffffffffffffffffffffffffffffffffffffff1673ffffffffffffffffffffffffffffffffffffffff16815250509050919050565b6000600660008473ffffffffffffffffffffffffffffffffffffffff1673ffffffffffffffffffffffffffffffffffffffff16815260200190815260200160002060008373ffffffffffffffffffffffffffffffffffffffff1673ffffffffffffffffffffffffffffffffffffffff16815260200190815260200160002060009054906101000a900460ff16905092915050565b611b74611d39565b73ffffffffffffffffffffffffffffffffffffffff16611b9261162a565b73ffffffffffffffffffffffffffffffffffffffff1614611be8576040517f08c379a0000000000000000000000000000000000000000000000000000000008152600401611bdf90613ba4565b60405180910390fd5b600073ffffffffffffffffffffffffffffffffffffffff168173ffffffffffffffffffffffffffffffffffffffff1603611c57576040517f08c379a0000000000000000000000000000000000000000000000000000000008152600401611c4e90613f63565b60405180910390fd5b611c608161219a565b50565b60007f01ffc9a7000000000000000000000000000000000000000000000000000000007bffffffffffffffffffffffffffffffffffffffffffffffffffffffff1916827bffffffffffffffffffffffffffffffffffffffffffffffffffffffff1916149050919050565b60008073ffffffffffffffffffffffffffffffffffffffff166003600084815260200190815260200160002060009054906101000a900473ffffffffffffffffffffffffffffffffffffffff1673ffffffffffffffffffffffffffffffffffffffff1614159050919050565b600033905090565b816005600083815260200190815260200160002060006101000a81548173ffffffffffffffffffffffffffffffffffffffff021916908373ffffffffffffffffffffffffffffffffffffffff160217905550808273ffffffffffffffffffffffffffffffffffffffff16611db483610f91565b73ffffffffffffffffffffffffffffffffffffffff167f8c5be1e5ebec7d5bd14f71427d1e84f3dd0314c0f7b2291e5b200ac8c7c3b92560405160405180910390a45050565b6000611e0582611ccd565b611e44576040517f08c379a0000000000000000000000000000000000000000000000000000000008152600401611e3b90613ff5565b60405180910390fd5b6000611e4f83610f91565b90508073ffffffffffffffffffffffffffffffffffffffff168473ffffffffffffffffffffffffffffffffffffffff161480611e915750611e908185611ad8565b5b80611ecf57508373ffffffffffffffffffffffffffffffffffffffff16611eb7846108ea565b73ffffffffffffffffffffffffffffffffffffffff16145b91505092915050565b8273ffffffffffffffffffffffffffffffffffffffff16611ef882610f91565b73ffffffffffffffffffffffffffffffffffffffff1614611f4e576040517f08c379a0000000000000000000000000000000000000000000000000000000008152600401611f4590614087565b60405180910390fd5b600073ffffffffffffffffffffffffffffffffffffffff168273ffffffffffffffffffffffffffffffffffffffff1603611fbd576040517f08c379a0000000000000000000000000000000000000000000000000000000008152600401611fb490614119565b60405180910390fd5b611fc8838383612882565b611fd3600082611d41565b6001600460008573ffffffffffffffffffffffffffffffffffffffff1673ffffffffffffffffffffffffffffffffffffffff16815260200190815260200160002060008282546120239190613d5f565b925050819055506001600460008473ffffffffffffffffffffffffffffffffffffffff1673ffffffffffffffffffffffffffffffffffffffff168152602001908152602001600020600082825461207a919061390d565b92505081905550816003600083815260200190815260200160002060006101000a81548173ffffffffffffffffffffffffffffffffffffffff021916908373ffffffffffffffffffffffffffffffffffffffff160217905550808273ffffffffffffffffffffffffffffffffffffffff168473ffffffffffffffffffffffffffffffffffffffff167fddf252ad1be2c89b69c2b068fc378daa952ba7f163c4a11628f55a4df523b3ef60405160405180910390a4612139838383612887565b505050565b612149848484611ed8565b6121558484848461288c565b612194576040517f08c379a000000000000000000000000000000000000000000000000000000000815260040161218b906141ab565b60405180910390fd5b50505050565b60008060009054906101000a900473ffffffffffffffffffffffffffffffffffffffff169050816000806101000a81548173ffffffffffffffffffffffffffffffffffffffff021916908373ffffffffffffffffffffffffffffffffffffffff1602179055508173ffffffffffffffffffffffffffffffffffffffff168173ffffffffffffffffffffffffffffffffffffffff167f8be0079c531659141344cd1fd0a4f28419497f9722a3daafe3b4186f6b6457e060405160405180910390a35050565b600a600083815260200190815260200160002060000160009054906101000a900460ff1661228b57600080fd5b600c54600a600084815260200190815260200160002060020154106122af57600080fd5b6000600a600084815260200190815260200160002060020154905060006122d68483610ae6565b9050600060096000838152602001908152602001600020905060018160000160006101000a81548160ff021916908315150217905550848160010181905550828160020181905550838160060160006101000a81548173ffffffffffffffffffffffffffffffffffffffff021916908373ffffffffffffffffffffffffffffffffffffffff160217905550838160070160006101000a81548173ffffffffffffffffffffffffffffffffffffffff021916908373ffffffffffffffffffffffffffffffffffffffff1602179055506000600860008673ffffffffffffffffffffffffffffffffffffffff1673ffffffffffffffffffffffffffffffffffffffff16815260200190815260200160002090508060000160009054906101000a900460ff166124105761240685612a13565b8281600301819055505b600080826001015414159050801561248f576000600860008873ffffffffffffffffffffffffffffffffffffffff1673ffffffffffffffffffffffffffffffffffffffff168152602001908152602001600020600401549050846009600083815260200190815260200160002060040181905550808460050181905550505b83826004018190555081600201600088815260200190815260200160002060008154809291906124be90613963565b91905055508160010160008154809291906124d890613963565b9190505550600a6000888152602001908152602001600020600201600081548092919061250490613963565b9190505550600a600088815260200190815260200160002060040160008773ffffffffffffffffffffffffffffffffffffffff1673ffffffffffffffffffffffffffffffffffffffff168152602001908152602001600020600081548092919061256d90613963565b91905055506001600b6000828254612585919061390d565b925050819055506125963385612ad1565b50505050505050565b8173ffffffffffffffffffffffffffffffffffffffff168373ffffffffffffffffffffffffffffffffffffffff160361260d576040517f08c379a000000000000000000000000000000000000000000000000000000000815260040161260490614217565b60405180910390fd5b80600660008573ffffffffffffffffffffffffffffffffffffffff1673ffffffffffffffffffffffffffffffffffffffff16815260200190815260200160002060008473ffffffffffffffffffffffffffffffffffffffff1673ffffffffffffffffffffffffffffffffffffffff16815260200190815260200160002060006101000a81548160ff0219169083151502179055508173ffffffffffffffffffffffffffffffffffffffff168373ffffffffffffffffffffffffffffffffffffffff167f17307eab39ab6107e8899845ad3d59bd9653f200f220920489ca2b5937696c31836040516126fe9190612e8a565b60405180910390a3505050565b606060405180602001604052806000815250905090565b606060008203612769576040518060400160405280600181526020017f3000000000000000000000000000000000000000000000000000000000000000815250905061287d565b600082905060005b6000821461279b57808061278490613963565b915050600a826127949190613d2e565b9150612771565b60008167ffffffffffffffff8111156127b7576127b66132ee565b5b6040519080825280601f01601f1916602001820160405280156127e95781602001600182028036833780820191505090505b5090505b60008514612876576001826128029190613d5f565b9150600a856128119190613a95565b603061281d919061390d565b60f81b81838151811061283357612832614237565b5b60200101907effffffffffffffffffffffffffffffffffffffffffffffffffffffffffffff1916908160001a905350600a8561286f9190613d2e565b94506127ed565b8093505050505b919050565b505050565b505050565b60006128ad8473ffffffffffffffffffffffffffffffffffffffff16612aef565b15612a06578373ffffffffffffffffffffffffffffffffffffffff1663150b7a026128d6611d39565b8786866040518563ffffffff1660e01b81526004016128f894939291906142bb565b6020604051808303816000875af192505050801561293457506040513d601f19601f82011682018060405250810190612931919061431c565b60015b6129b6573d8060008114612964576040519150601f19603f3d011682016040523d82523d6000602084013e612969565b606091505b5060008151036129ae576040517f08c379a00000000000000000000000000000000000000000000000000000000081526004016129a5906141ab565b60405180910390fd5b805181602001fd5b63150b7a0260e01b7bffffffffffffffffffffffffffffffffffffffffffffffffffffffff1916817bffffffffffffffffffffffffffffffffffffffffffffffffffffffff191614915050612a0b565b600190505b949350505050565b6000600860008373ffffffffffffffffffffffffffffffffffffffff1673ffffffffffffffffffffffffffffffffffffffff16815260200190815260200160002090508060000160009054906101000a900460ff16612acd5760018160000160006101000a81548160ff021916908315150217905550818160000160016101000a81548173ffffffffffffffffffffffffffffffffffffffff021916908373ffffffffffffffffffffffffffffffffffffffff1602179055505b5050565b612aeb828260405180602001604052806000815250612b12565b5050565b6000808273ffffffffffffffffffffffffffffffffffffffff163b119050919050565b612b1c8383612b6d565b612b29600084848461288c565b612b68576040517f08c379a0000000000000000000000000000000000000000000000000000000008152600401612b5f906141ab565b60405180910390fd5b505050565b600073ffffffffffffffffffffffffffffffffffffffff168273ffffffffffffffffffffffffffffffffffffffff1603612bdc576040517f08c379a0000000000000000000000000000000000000000000000000000000008152600401612bd390614395565b60405180910390fd5b612be581611ccd565b15612c25576040517f08c379a0000000000000000000000000000000000000000000000000000000008152600401612c1c90614401565b60405180910390fd5b612c3160008383612882565b6001600460008473ffffffffffffffffffffffffffffffffffffffff1673ffffffffffffffffffffffffffffffffffffffff1681526020019081526020016000206000828254612c81919061390d565b92505081905550816003600083815260200190815260200160002060006101000a81548173ffffffffffffffffffffffffffffffffffffffff021916908373ffffffffffffffffffffffffffffffffffffffff160217905550808273ffffffffffffffffffffffffffffffffffffffff16600073ffffffffffffffffffffffffffffffffffffffff167fddf252ad1be2c89b69c2b068fc378daa952ba7f163c4a11628f55a4df523b3ef60405160405180910390a4612d4260008383612887565b5050565b6040518061012001604052806000151581526020016000815260200160008152602001600081526020016000815260200160008152602001600073ffffffffffffffffffffffffffffffffffffffff168152602001600073ffffffffffffffffffffffffffffffffffffffff168152602001600073ffffffffffffffffffffffffffffffffffffffff1681525090565b6000604051905090565b600080fd5b600080fd5b60007fffffffff0000000000000000000000000000000000000000000000000000000082169050919050565b612e1f81612dea565b8114612e2a57600080fd5b50565b600081359050612e3c81612e16565b92915050565b600060208284031215612e5857612e57612de0565b5b6000612e6684828501612e2d565b91505092915050565b60008115159050919050565b612e8481612e6f565b82525050565b6000602082019050612e9f6000830184612e7b565b92915050565b600081519050919050565b600082825260208201905092915050565b60005b83811015612edf578082015181840152602081019050612ec4565b83811115612eee576000848401525b50505050565b6000601f19601f8301169050919050565b6000612f1082612ea5565b612f1a8185612eb0565b9350612f2a818560208601612ec1565b612f3381612ef4565b840191505092915050565b60006020820190508181036000830152612f588184612f05565b905092915050565b6000819050919050565b612f7381612f60565b8114612f7e57600080fd5b50565b600081359050612f9081612f6a565b92915050565b600060208284031215612fac57612fab612de0565b5b6000612fba84828501612f81565b91505092915050565b600073ffffffffffffffffffffffffffffffffffffffff82169050919050565b6000612fee82612fc3565b9050919050565b612ffe81612fe3565b82525050565b60006020820190506130196000830184612ff5565b92915050565b61302881612fe3565b811461303357600080fd5b50565b6000813590506130458161301f565b92915050565b6000806040838503121561306257613061612de0565b5b600061307085828601613036565b925050602061308185828601612f81565b9150509250929050565b6000806000606084860312156130a4576130a3612de0565b5b60006130b286828701613036565b93505060206130c386828701613036565b92505060406130d486828701612f81565b9150509250925092565b600080604083850312156130f5576130f4612de0565b5b600061310385828601612f81565b925050602061311485828601612f81565b9150509250929050565b61312781612f60565b82525050565b6000602082019050613142600083018461311e565b92915050565b60006020828403121561315e5761315d612de0565b5b600061316c84828501613036565b91505092915050565b600060808201905061318a6000830187612e7b565b613197602083018661311e565b6131a4604083018561311e565b6131b1606083018461311e565b95945050505050565b60006131c582612fc3565b9050919050565b6131d5816131ba565b81146131e057600080fd5b50565b6000813590506131f2816131cc565b92915050565b6000806040838503121561320f5761320e612de0565b5b600061321d85828601612f81565b925050602061322e858286016131e3565b9150509250929050565b6000806040838503121561324f5761324e612de0565b5b600061325d85828601612f81565b925050602061326e85828601613036565b9150509250929050565b61328181612e6f565b811461328c57600080fd5b50565b60008135905061329e81613278565b92915050565b600080604083850312156132bb576132ba612de0565b5b60006132c985828601613036565b92505060206132da8582860161328f565b9150509250929050565b600080fd5b600080fd5b7f4e487b7100000000000000000000000000000000000000000000000000000000600052604160045260246000fd5b61332682612ef4565b810181811067ffffffffffffffff82111715613345576133446132ee565b5b80604052505050565b6000613358612dd6565b9050613364828261331d565b919050565b600067ffffffffffffffff821115613384576133836132ee565b5b61338d82612ef4565b9050602081019050919050565b82818337600083830152505050565b60006133bc6133b784613369565b61334e565b9050828152602081018484840111156133d8576133d76132e9565b5b6133e384828561339a565b509392505050565b600082601f830112613400576133ff6132e4565b5b81356134108482602086016133a9565b91505092915050565b6000806000806080858703121561343357613432612de0565b5b600061344187828801613036565b945050602061345287828801613036565b935050604061346387828801612f81565b925050606085013567ffffffffffffffff81111561348457613483612de5565b5b613490878288016133eb565b91505092959194509250565b6134a581612e6f565b82525050565b6134b481612f60565b82525050565b6134c381612fe3565b82525050565b610120820160008201516134e0600085018261349c565b5060208201516134f360208501826134ab565b50604082015161350660408501826134ab565b50606082015161351960608501826134ab565b50608082015161352c60808501826134ab565b5060a082015161353f60a08501826134ab565b5060c082015161355260c08501826134ba565b5060e082015161356560e08501826134ba565b5061010082015161357a6101008501826134ba565b50505050565b60006101208201905061359660008301846134c9565b92915050565b600080604083850312156135b3576135b2612de0565b5b60006135c185828601613036565b92505060206135d285828601613036565b9150509250929050565b7f4e487b7100000000000000000000000000000000000000000000000000000000600052602260045260246000fd5b6000600282049050600182168061362357607f821691505b602082108103613636576136356135dc565b5b50919050565b7f4552433732313a20617070726f76656420717565727920666f72206e6f6e657860008201527f697374656e7420746f6b656e0000000000000000000000000000000000000000602082015250565b6000613698602c83612eb0565b91506136a38261363c565b604082019050919050565b600060208201905081810360008301526136c78161368b565b9050919050565b7f4552433732313a20617070726f76616c20746f2063757272656e74206f776e6560008201527f7200000000000000000000000000000000000000000000000000000000000000602082015250565b600061372a602183612eb0565b9150613735826136ce565b604082019050919050565b600060208201905081810360008301526137598161371d565b9050919050565b7f4552433732313a20617070726f76652063616c6c6572206973206e6f74206f7760008201527f6e6572206e6f7220617070726f76656420666f7220616c6c0000000000000000602082015250565b60006137bc603883612eb0565b91506137c782613760565b604082019050919050565b600060208201905081810360008301526137eb816137af565b9050919050565b7f4552433732313a207472616e736665722063616c6c6572206973206e6f74206f60008201527f776e6572206e6f7220617070726f766564000000000000000000000000000000602082015250565b600061384e603183612eb0565b9150613859826137f2565b604082019050919050565b6000602082019050818103600083015261387d81613841565b9050919050565b7f4e487b7100000000000000000000000000000000000000000000000000000000600052601160045260246000fd5b60006138be82612f60565b91506138c983612f60565b9250817fffffffffffffffffffffffffffffffffffffffffffffffffffffffffffffffff048311821515161561390257613901613884565b5b828202905092915050565b600061391882612f60565b915061392383612f60565b9250827fffffffffffffffffffffffffffffffffffffffffffffffffffffffffffffffff0382111561395857613957613884565b5b828201905092915050565b600061396e82612f60565b91507fffffffffffffffffffffffffffffffffffffffffffffffffffffffffffffffff82036139a05761399f613884565b5b600182019050919050565b60006139b682612f60565b9150600082036139c9576139c8613884565b5b600182039050919050565b7f4552433732313a206f776e657220717565727920666f72206e6f6e657869737460008201527f656e7420746f6b656e0000000000000000000000000000000000000000000000602082015250565b6000613a30602983612eb0565b9150613a3b826139d4565b604082019050919050565b60006020820190508181036000830152613a5f81613a23565b9050919050565b7f4e487b7100000000000000000000000000000000000000000000000000000000600052601260045260246000fd5b6000613aa082612f60565b9150613aab83612f60565b925082613abb57613aba613a66565b5b828206905092915050565b7f4552433732313a2062616c616e636520717565727920666f7220746865207a6560008201527f726f206164647265737300000000000000000000000000000000000000000000602082015250565b6000613b22602a83612eb0565b9150613b2d82613ac6565b604082019050919050565b60006020820190508181036000830152613b5181613b15565b9050919050565b7f4f776e61626c653a2063616c6c6572206973206e6f7420746865206f776e6572600082015250565b6000613b8e602083612eb0565b9150613b9982613b58565b602082019050919050565b60006020820190508181036000830152613bbd81613b81565b9050919050565b7f5075626c69636174696f6e206d696e746564206265666f72652e000000000000600082015250565b6000613bfa601a83612eb0565b9150613c0582613bc4565b602082019050919050565b60006020820190508181036000830152613c2981613bed565b9050919050565b7f426f6f6b20646f65736e27742065786973740000000000000000000000000000600082015250565b6000613c66601283612eb0565b9150613c7182613c30565b602082019050919050565b60006020820190508181036000830152613c9581613c59565b9050919050565b7f496e73756666696369656e742066756e64732e20506c6561736520636865636b60008201527f2070726963652e00000000000000000000000000000000000000000000000000602082015250565b6000613cf8602783612eb0565b9150613d0382613c9c565b604082019050919050565b60006020820190508181036000830152613d2781613ceb565b9050919050565b6000613d3982612f60565b9150613d4483612f60565b925082613d5457613d53613a66565b5b828204905092915050565b6000613d6a82612f60565b9150613d7583612f60565b925082821015613d8857613d87613884565b5b828203905092915050565b7f4552433732314d657461646174613a2055524920717565727920666f72206e6f60008201527f6e6578697374656e7420746f6b656e0000000000000000000000000000000000602082015250565b6000613def602f83612eb0565b9150613dfa82613d93565b604082019050919050565b60006020820190508181036000830152613e1e81613de2565b9050919050565b600081905092915050565b6000613e3b82612ea5565b613e458185613e25565b9350613e55818560208601612ec1565b80840191505092915050565b6000613e6d8285613e30565b9150613e798284613e30565b91508190509392505050565b7f54426f6f6b20646f6573206e6f74206578697374000000000000000000000000600082015250565b6000613ebb601483612eb0565b9150613ec682613e85565b602082019050919050565b60006020820190508181036000830152613eea81613eae565b9050919050565b7f4f776e61626c653a206e6577206f776e657220697320746865207a65726f206160008201527f6464726573730000000000000000000000000000000000000000000000000000602082015250565b6000613f4d602683612eb0565b9150613f5882613ef1565b604082019050919050565b60006020820190508181036000830152613f7c81613f40565b9050919050565b7f4552433732313a206f70657261746f7220717565727920666f72206e6f6e657860008201527f697374656e7420746f6b656e0000000000000000000000000000000000000000602082015250565b6000613fdf602c83612eb0565b9150613fea82613f83565b604082019050919050565b6000602082019050818103600083015261400e81613fd2565b9050919050565b7f4552433732313a207472616e736665722066726f6d20696e636f72726563742060008201527f6f776e6572000000000000000000000000000000000000000000000000000000602082015250565b6000614071602583612eb0565b915061407c82614015565b604082019050919050565b600060208201905081810360008301526140a081614064565b9050919050565b7f4552433732313a207472616e7366657220746f20746865207a65726f2061646460008201527f7265737300000000000000000000000000000000000000000000000000000000602082015250565b6000614103602483612eb0565b915061410e826140a7565b604082019050919050565b60006020820190508181036000830152614132816140f6565b9050919050565b7f4552433732313a207472616e7366657220746f206e6f6e20455243373231526560008201527f63656976657220696d706c656d656e7465720000000000000000000000000000602082015250565b6000614195603283612eb0565b91506141a082614139565b604082019050919050565b600060208201905081810360008301526141c481614188565b9050919050565b7f4552433732313a20617070726f766520746f2063616c6c657200000000000000600082015250565b6000614201601983612eb0565b915061420c826141cb565b602082019050919050565b60006020820190508181036000830152614230816141f4565b9050919050565b7f4e487b7100000000000000000000000000000000000000000000000000000000600052603260045260246000fd5b600081519050919050565b600082825260208201905092915050565b600061428d82614266565b6142978185614271565b93506142a7818560208601612ec1565b6142b081612ef4565b840191505092915050565b60006080820190506142d06000830187612ff5565b6142dd6020830186612ff5565b6142ea604083018561311e565b81810360608301526142fc8184614282565b905095945050505050565b60008151905061431681612e16565b92915050565b60006020828403121561433257614331612de0565b5b600061434084828501614307565b91505092915050565b7f4552433732313a206d696e7420746f20746865207a65726f2061646472657373600082015250565b600061437f602083612eb0565b915061438a82614349565b602082019050919050565b600060208201905081810360008301526143ae81614372565b9050919050565b7f4552433732313a20746f6b656e20616c7265616479206d696e74656400000000600082015250565b60006143eb601c83612eb0565b91506143f6826143b5565b602082019050919050565b6000602082019050818103600083015261441a816143de565b905091905056fea2646970667358221220bbc17552ee6449593c2c628737a8f6d9ffcc9f960a3570a71755af31b37d6bd864736f6c634300080d0033",
  "immutableReferences": {},
  "source": "// SPDX-License-Identifier: MIT\npragma solidity ^0.8.0;\n\nimport \"@openzeppelin/contracts/token/ERC721/ERC721.sol\";\nimport \"@openzeppelin/contracts/access/Ownable.sol\";\n\ncontract TBookFactory is Ownable, ERC721 {\n    // A Copy of a Book\n    struct CopyInfo {\n        // Basics\n        bool exists;\n        uint256 tbsn;\n        uint256 copyNumber;\n        uint256 numTransactions; // How many times sold/transacted\n        // Linked List info;\n        uint256 nextLinkId;\n        uint256 prevLinkId;\n        // Holder Info\n        address initHolder; // Who minted this\n        address currentHolder;\n        address lastHolder; // Who was the last person to hold this NFT\n    }\n    // A Single Book\n    struct TBookInfo {\n        bool exists;\n        uint256 tbsn;\n        uint256 numCopies; // Max 10 ** 12 copies\n        address payable author;\n        mapping(address => uint256) collectors;\n    }\n\n    // A Single User\n    struct UserInfo {\n        bool exists;\n        address userAddress;\n        uint256 collectionSize;\n        mapping(uint256 => uint256) bookToCopies; // Maps TBSN to whether the number of copies the user has collected.\n        // LinkedList Info\n        uint256 firstLinkId;\n        uint256 lastLinkId;\n    }\n\n    uint256 numUsers;\n    mapping(address => UserInfo) addressToUser;\n\n    // This ID is the NFT ID, is completely seperate from TBSN and Copy Number\n    mapping(uint256 => CopyInfo) idToCopy;\n\n    // Maps TBSN to TBook Info\n    mapping(uint256 => TBookInfo) tbsnToBook;\n\n    uint256 totalCopies;\n\n    // Max copies of a single TBook\n    uint256 private _maxCopies;\n\n    constructor() ERC721(\"TBook\", \"TBK\") {\n        _maxCopies = 10**5;\n    }\n\n    // -------- Test functions -----------\n    function getOwnerOf(uint256 tokenId) public view returns (address) {\n        return idToCopy[tokenId].currentHolder;\n    }\n\n    // -----------------------------------\n\n    /**\n    Gets the ID from the TBSN and the Copy Number\n    Copy 1 of 75025 would be 75025000000001\n     */\n    function getId(uint256 tbsn, uint256 copyNumber)\n        public\n        view\n        returns (uint256)\n    {\n        uint256 id = tbsn * (_maxCopies);\n        id += copyNumber;\n        return id;\n    }\n\n    function tbsnFromId(uint256 id) public view returns (uint256) {\n        return id / _maxCopies;\n    }\n\n    function copyNumberFromId(uint256 id) public view returns (uint256) {\n        return id % _maxCopies;\n    }\n\n    function createUser(address userAddress) internal {\n        UserInfo storage newUser = addressToUser[userAddress];\n        if (!newUser.exists) {\n            newUser.exists = true;\n            newUser.userAddress = userAddress;\n        }\n    }\n\n    function isUserHolder(address userAddress) public view returns (bool) {\n        UserInfo storage user = addressToUser[userAddress];\n        if (user.exists && user.collectionSize > 0) {\n            return true;\n        } else {\n            return false;\n        }\n    }\n\n    function userHoldsTBSN(uint256 tbsn, address userAddress)\n        public\n        view\n        returns (bool)\n    {\n        TBookInfo storage book = tbsnToBook[tbsn];\n        if (book.exists && (book.collectors[userAddress] > 0)) {\n            return true;\n        }\n        return false;\n    }\n\n    // Mint a copy of the book\n    function mint(uint256 tbsn, address mintAddress) internal {\n        require(tbsnToBook[tbsn].exists);\n        require(tbsnToBook[tbsn].numCopies < _maxCopies);\n        uint256 currentCopy = tbsnToBook[tbsn].numCopies;\n\n        // Generate the ID from the TBSN + Copy Number\n        uint256 id = getId(tbsn, currentCopy);\n\n        // Update CopyInfo\n        CopyInfo storage mintCopy = idToCopy[id];\n        mintCopy.exists = true;\n        mintCopy.tbsn = tbsn;\n        mintCopy.copyNumber = currentCopy;\n        mintCopy.initHolder = mintAddress;\n        mintCopy.currentHolder = mintAddress;\n\n        // Update UserInfo\n        UserInfo storage mintUser = addressToUser[mintAddress];\n        if (!mintUser.exists) {\n            // Init userInfo\n            createUser(mintAddress);\n            mintUser.firstLinkId = id;\n        }\n\n        // Update the LinkedList\n        bool hasCollected = mintUser.collectionSize != 0;\n        if (hasCollected) {\n            uint256 lastLink = addressToUser[mintAddress].lastLinkId;\n            idToCopy[lastLink].nextLinkId = id;\n            mintCopy.prevLinkId = lastLink;\n        }\n        mintUser.lastLinkId = id;\n        mintUser.bookToCopies[tbsn]++;\n        mintUser.collectionSize++;\n\n        // Update BookInfo\n        tbsnToBook[tbsn].numCopies++;\n        tbsnToBook[tbsn].collectors[mintAddress]++;\n\n        totalCopies += 1;\n        _safeMint(msg.sender, id);\n    }\n\n    function safeTransferFrom(\n        address from,\n        address to,\n        uint256 tokenId\n    ) public override {\n        uint256 tbsn = tbsnFromId(tokenId);\n        require(\n            (tbsnToBook[tbsn].collectors[from] > 0) &&\n                (addressToUser[from].bookToCopies[tbsn] > 0)\n        );\n\n        // Update CopyInfo\n        CopyInfo storage bookCopy = idToCopy[tokenId];\n        bookCopy.lastHolder = from;\n        bookCopy.currentHolder = to;\n        bookCopy.numTransactions++;\n\n        // Update TBookInfo\n        TBookInfo storage tbookInfo = tbsnToBook[tbsn];\n        tbookInfo.collectors[from]--;\n        tbookInfo.collectors[to]++;\n\n        // Update UserInfo\n        UserInfo storage fromUser = addressToUser[from];\n        UserInfo storage toUser = addressToUser[to];\n\n        fromUser.bookToCopies[tbsn]--;\n        fromUser.collectionSize--;\n        toUser.bookToCopies[tbsn]++;\n        toUser.collectionSize++;\n\n        // Handle Linked List Stuff\n\n        // Detach step\n        uint256 fromLinkPrev = bookCopy.prevLinkId;\n        uint256 fromLinkNext = bookCopy.nextLinkId;\n        if (fromLinkPrev == 0) {\n            // First book of the user\n            fromUser.firstLinkId = fromLinkNext;\n        } else {\n            idToCopy[fromLinkPrev].nextLinkId = fromLinkNext;\n        }\n        if (fromLinkNext == 0) {\n            fromUser.lastLinkId = fromLinkPrev;\n        }\n\n        // Attach step\n        uint256 toLastLink = toUser.lastLinkId;\n        bookCopy.prevLinkId = toLastLink;\n        bookCopy.nextLinkId = 0;\n        if (toLastLink == 0) {\n            toUser.firstLinkId = tokenId;\n        } else {\n            idToCopy[toLastLink].nextLinkId = tokenId;\n        }\n        toUser.lastLinkId = tokenId;\n\n        _safeTransfer(from, to, tokenId, \" \");\n    }\n\n    function getPrice(uint256 tbsn) public view returns (uint256) {\n        require(tbsnToBook[tbsn].exists, \"TBook does not exist\");\n        uint256 floor = 0;\n        uint256 inc = 10; // linear\n        // exponential:\n        // uint256 step = 50;\n        // uint256 power = copies / step;\n        // uint256 price = floor * (2**power);\n\n        uint256 copies = tbsnToBook[tbsn].numCopies;\n        uint256 price = floor + (copies * inc);\n        return price; // returns in finneys\n    }\n\n    function collect(uint256 tbsn, address collector)\n        public\n        payable\n        returns (uint256)\n    {\n        // Check if tbsn exists\n        require(tbsnToBook[tbsn].exists, \"Book doesn't exist\");\n\n        uint256 priceWei = getPrice(tbsn) * (10**15); // convert to Wei\n        require(\n            msg.value >= priceWei,\n            \"Insufficient funds. Please check price.\"\n        );\n        uint256 authorPay = (priceWei * 80) / 100;\n        uint256 platformPay = priceWei - authorPay;\n        address payable author = tbsnToBook[tbsn].author;\n        mint(tbsn, collector);\n        author.transfer(authorPay);\n        payable(owner()).transfer(platformPay);\n        return addressToUser[collector].lastLinkId;\n    }\n\n    function publish(uint256 tbsn, address payable author) external {\n        // Use an oracle to check that this is a valid call with correct author (valid tbsn)\n        // TODO\n        TBookInfo storage book = tbsnToBook[tbsn];\n        require(!book.exists, \"Publication minted before.\");\n        // Only the Foundation can Publish\n        require(msg.sender == owner());\n        // Update BookInfo\n        tbsnToBook[tbsn].exists = true;\n        tbsnToBook[tbsn].author = author;\n        // Free mint for the author\n        mint(tbsn, author);\n    }\n\n    // ----------------------------\n    // Public Gets\n    // Can use this in order to iterate through an entire user's collection\n    function getCopyInfo(uint256 id) external view returns (CopyInfo memory) {\n        return idToCopy[id];\n    }\n\n    function getUserInfo(address userAddress)\n        public\n        view\n        returns (\n            bool,\n            uint256,\n            uint256,\n            uint256\n        )\n    {\n        UserInfo storage info = addressToUser[userAddress];\n        return (\n            info.exists,\n            info.collectionSize,\n            info.firstLinkId,\n            info.lastLinkId\n        );\n    }\n\n    function getTBookExists(uint256 tbsn) public view returns (bool) {\n        return tbsnToBook[tbsn].exists;\n    }\n}\n",
  "sourcePath": "/Users/jayyu/Documents/OneDrive - Stanford/Work/Projects/TSalon/prototypes/tsalon-nft/contracts/TBookFactory.sol",
  "compiler": {
    "name": "solc",
    "version": "0.8.13+commit.abaa5c0e.Emscripten.clang"
  },
  "schemaVersion": "3.4.7",
  "updatedAt": "2022-07-27T05:02:50.320Z",
  "networkType": "ethereum",
  "devdoc": {
    "kind": "dev",
    "methods": {
      "approve(address,uint256)": {
        "details": "See {IERC721-approve}."
      },
      "balanceOf(address)": {
        "details": "See {IERC721-balanceOf}."
      },
      "getApproved(uint256)": {
        "details": "See {IERC721-getApproved}."
      },
      "isApprovedForAll(address,address)": {
        "details": "See {IERC721-isApprovedForAll}."
      },
      "name()": {
        "details": "See {IERC721Metadata-name}."
      },
      "owner()": {
        "details": "Returns the address of the current owner."
      },
      "ownerOf(uint256)": {
        "details": "See {IERC721-ownerOf}."
      },
      "renounceOwnership()": {
        "details": "Leaves the contract without owner. It will not be possible to call `onlyOwner` functions anymore. Can only be called by the current owner. NOTE: Renouncing ownership will leave the contract without an owner, thereby removing any functionality that is only available to the owner."
      },
      "safeTransferFrom(address,address,uint256)": {
        "details": "See {IERC721-safeTransferFrom}."
      },
      "safeTransferFrom(address,address,uint256,bytes)": {
        "details": "See {IERC721-safeTransferFrom}."
      },
      "setApprovalForAll(address,bool)": {
        "details": "See {IERC721-setApprovalForAll}."
      },
      "supportsInterface(bytes4)": {
        "details": "See {IERC165-supportsInterface}."
      },
      "symbol()": {
        "details": "See {IERC721Metadata-symbol}."
      },
      "tokenURI(uint256)": {
        "details": "See {IERC721Metadata-tokenURI}."
      },
      "transferFrom(address,address,uint256)": {
        "details": "See {IERC721-transferFrom}."
      },
      "transferOwnership(address)": {
        "details": "Transfers ownership of the contract to a new account (`newOwner`). Can only be called by the current owner."
      }
    },
    "version": 1
  },
  "userdoc": {
    "kind": "user",
    "methods": {
      "getId(uint256,uint256)": {
        "notice": "Gets the ID from the TBSN and the Copy Number Copy 1 of 75025 would be 75025000000001"
      }
    },
    "version": 1
  }
}