{
  "_format": "hh-sol-artifact-1",
  "contractName": "TBookFactory",
  "sourceName": "contracts/TBookFactory.sol",
  "abi": [
    {
      "inputs": [
        {
          "internalType": "address",
          "name": "initialOwner",
          "type": "address"
        }
      ],
      "stateMutability": "nonpayable",
      "type": "constructor"
    },
    {
      "inputs": [
        {
          "internalType": "address",
          "name": "sender",
          "type": "address"
        },
        {
          "internalType": "uint256",
          "name": "tokenId",
          "type": "uint256"
        },
        {
          "internalType": "address",
          "name": "owner",
          "type": "address"
        }
      ],
      "name": "ERC721IncorrectOwner",
      "type": "error"
    },
    {
      "inputs": [
        {
          "internalType": "address",
          "name": "operator",
          "type": "address"
        },
        {
          "internalType": "uint256",
          "name": "tokenId",
          "type": "uint256"
        }
      ],
      "name": "ERC721InsufficientApproval",
      "type": "error"
    },
    {
      "inputs": [
        {
          "internalType": "address",
          "name": "approver",
          "type": "address"
        }
      ],
      "name": "ERC721InvalidApprover",
      "type": "error"
    },
    {
      "inputs": [
        {
          "internalType": "address",
          "name": "operator",
          "type": "address"
        }
      ],
      "name": "ERC721InvalidOperator",
      "type": "error"
    },
    {
      "inputs": [
        {
          "internalType": "address",
          "name": "owner",
          "type": "address"
        }
      ],
      "name": "ERC721InvalidOwner",
      "type": "error"
    },
    {
      "inputs": [
        {
          "internalType": "address",
          "name": "receiver",
          "type": "address"
        }
      ],
      "name": "ERC721InvalidReceiver",
      "type": "error"
    },
    {
      "inputs": [
        {
          "internalType": "address",
          "name": "sender",
          "type": "address"
        }
      ],
      "name": "ERC721InvalidSender",
      "type": "error"
    },
    {
      "inputs": [
        {
          "internalType": "uint256",
          "name": "tokenId",
          "type": "uint256"
        }
      ],
      "name": "ERC721NonexistentToken",
      "type": "error"
    },
    {
      "inputs": [
        {
          "internalType": "address",
          "name": "owner",
          "type": "address"
        }
      ],
      "name": "OwnableInvalidOwner",
      "type": "error"
    },
    {
      "inputs": [
        {
          "internalType": "address",
          "name": "account",
          "type": "address"
        }
      ],
      "name": "OwnableUnauthorizedAccount",
      "type": "error"
    },
    {
      "anonymous": false,
      "inputs": [
        {
          "indexed": true,
          "internalType": "address",
          "name": "owner",
          "type": "address"
        },
        {
          "indexed": true,
          "internalType": "address",
          "name": "approved",
          "type": "address"
        },
        {
          "indexed": true,
          "internalType": "uint256",
          "name": "tokenId",
          "type": "uint256"
        }
      ],
      "name": "Approval",
      "type": "event"
    },
    {
      "anonymous": false,
      "inputs": [
        {
          "indexed": true,
          "internalType": "address",
          "name": "owner",
          "type": "address"
        },
        {
          "indexed": true,
          "internalType": "address",
          "name": "operator",
          "type": "address"
        },
        {
          "indexed": false,
          "internalType": "bool",
          "name": "approved",
          "type": "bool"
        }
      ],
      "name": "ApprovalForAll",
      "type": "event"
    },
    {
      "anonymous": false,
      "inputs": [
        {
          "indexed": true,
          "internalType": "address",
          "name": "previousOwner",
          "type": "address"
        },
        {
          "indexed": true,
          "internalType": "address",
          "name": "newOwner",
          "type": "address"
        }
      ],
      "name": "OwnershipTransferred",
      "type": "event"
    },
    {
      "anonymous": false,
      "inputs": [
        {
          "indexed": true,
          "internalType": "address",
          "name": "from",
          "type": "address"
        },
        {
          "indexed": true,
          "internalType": "address",
          "name": "to",
          "type": "address"
        },
        {
          "indexed": true,
          "internalType": "uint256",
          "name": "tokenId",
          "type": "uint256"
        }
      ],
      "name": "Transfer",
      "type": "event"
    },
    {
      "inputs": [],
      "name": "BASE_PRICE",
      "outputs": [
        {
          "internalType": "uint256",
          "name": "",
          "type": "uint256"
        }
      ],
      "stateMutability": "view",
      "type": "function"
    },
    {
      "inputs": [],
      "name": "MAX_COPIES",
      "outputs": [
        {
          "internalType": "uint256",
          "name": "",
          "type": "uint256"
        }
      ],
      "stateMutability": "view",
      "type": "function"
    },
    {
      "inputs": [
        {
          "internalType": "address",
          "name": "to",
          "type": "address"
        },
        {
          "internalType": "uint256",
          "name": "tokenId",
          "type": "uint256"
        }
      ],
      "name": "approve",
      "outputs": [],
      "stateMutability": "nonpayable",
      "type": "function"
    },
    {
      "inputs": [
        {
          "internalType": "address",
          "name": "owner",
          "type": "address"
        }
      ],
      "name": "balanceOf",
      "outputs": [
        {
          "internalType": "uint256",
          "name": "",
          "type": "uint256"
        }
      ],
      "stateMutability": "view",
      "type": "function"
    },
    {
      "inputs": [
        {
          "internalType": "uint256",
          "name": "tbsn",
          "type": "uint256"
        },
        {
          "internalType": "uint256",
          "name": "numCopies",
          "type": "uint256"
        },
        {
          "internalType": "address payable",
          "name": "author",
          "type": "address"
        }
      ],
      "name": "createTBook",
      "outputs": [],
      "stateMutability": "nonpayable",
      "type": "function"
    },
    {
      "inputs": [
        {
          "internalType": "uint256",
          "name": "tbsn",
          "type": "uint256"
        },
        {
          "internalType": "uint256",
          "name": "copyNumber",
          "type": "uint256"
        }
      ],
      "name": "generateTokenId",
      "outputs": [
        {
          "internalType": "uint256",
          "name": "",
          "type": "uint256"
        }
      ],
      "stateMutability": "pure",
      "type": "function"
    },
    {
      "inputs": [],
      "name": "getAllTBooks",
      "outputs": [
        {
          "internalType": "uint256[]",
          "name": "",
          "type": "uint256[]"
        }
      ],
      "stateMutability": "view",
      "type": "function"
    },
    {
      "inputs": [
        {
          "internalType": "uint256",
          "name": "tokenId",
          "type": "uint256"
        }
      ],
      "name": "getApproved",
      "outputs": [
        {
          "internalType": "address",
          "name": "",
          "type": "address"
        }
      ],
      "stateMutability": "view",
      "type": "function"
    },
    {
      "inputs": [
        {
          "internalType": "address",
          "name": "author",
          "type": "address"
        }
      ],
      "name": "getAuthoredTBooks",
      "outputs": [
        {
          "internalType": "uint256[]",
          "name": "",
          "type": "uint256[]"
        }
      ],
      "stateMutability": "view",
      "type": "function"
    },
    {
      "inputs": [
        {
          "internalType": "uint256",
          "name": "tbsn",
          "type": "uint256"
        }
      ],
      "name": "getCurrentPrice",
      "outputs": [
        {
          "internalType": "uint256",
          "name": "",
          "type": "uint256"
        }
      ],
      "stateMutability": "view",
      "type": "function"
    },
    {
      "inputs": [
        {
          "internalType": "address",
          "name": "owner",
          "type": "address"
        }
      ],
      "name": "getOwnedTBooks",
      "outputs": [
        {
          "internalType": "uint256[]",
          "name": "",
          "type": "uint256[]"
        }
      ],
      "stateMutability": "view",
      "type": "function"
    },
    {
      "inputs": [
        {
          "internalType": "address",
          "name": "owner",
          "type": "address"
        },
        {
          "internalType": "address",
          "name": "operator",
          "type": "address"
        }
      ],
      "name": "isApprovedForAll",
      "outputs": [
        {
          "internalType": "bool",
          "name": "",
          "type": "bool"
        }
      ],
      "stateMutability": "view",
      "type": "function"
    },
    {
      "inputs": [
        {
          "internalType": "uint256",
          "name": "tbsn",
          "type": "uint256"
        }
      ],
      "name": "mintCopy",
      "outputs": [],
      "stateMutability": "payable",
      "type": "function"
    },
    {
      "inputs": [],
      "name": "name",
      "outputs": [
        {
          "internalType": "string",
          "name": "",
          "type": "string"
        }
      ],
      "stateMutability": "view",
      "type": "function"
    },
    {
      "inputs": [],
      "name": "owner",
      "outputs": [
        {
          "internalType": "address",
          "name": "",
          "type": "address"
        }
      ],
      "stateMutability": "view",
      "type": "function"
    },
    {
      "inputs": [
        {
          "internalType": "uint256",
          "name": "tokenId",
          "type": "uint256"
        }
      ],
      "name": "ownerOf",
      "outputs": [
        {
          "internalType": "address",
          "name": "",
          "type": "address"
        }
      ],
      "stateMutability": "view",
      "type": "function"
    },
    {
      "inputs": [],
      "name": "renounceOwnership",
      "outputs": [],
      "stateMutability": "nonpayable",
      "type": "function"
    },
    {
      "inputs": [
        {
          "internalType": "address",
          "name": "from",
          "type": "address"
        },
        {
          "internalType": "address",
          "name": "to",
          "type": "address"
        },
        {
          "internalType": "uint256",
          "name": "tokenId",
          "type": "uint256"
        }
      ],
      "name": "safeTransferFrom",
      "outputs": [],
      "stateMutability": "nonpayable",
      "type": "function"
    },
    {
      "inputs": [
        {
          "internalType": "address",
          "name": "from",
          "type": "address"
        },
        {
          "internalType": "address",
          "name": "to",
          "type": "address"
        },
        {
          "internalType": "uint256",
          "name": "tokenId",
          "type": "uint256"
        },
        {
          "internalType": "bytes",
          "name": "data",
          "type": "bytes"
        }
      ],
      "name": "safeTransferFrom",
      "outputs": [],
      "stateMutability": "nonpayable",
      "type": "function"
    },
    {
      "inputs": [
        {
          "internalType": "address",
          "name": "operator",
          "type": "address"
        },
        {
          "internalType": "bool",
          "name": "approved",
          "type": "bool"
        }
      ],
      "name": "setApprovalForAll",
      "outputs": [],
      "stateMutability": "nonpayable",
      "type": "function"
    },
    {
      "inputs": [
        {
          "internalType": "bytes4",
          "name": "interfaceId",
          "type": "bytes4"
        }
      ],
      "name": "supportsInterface",
      "outputs": [
        {
          "internalType": "bool",
          "name": "",
          "type": "bool"
        }
      ],
      "stateMutability": "view",
      "type": "function"
    },
    {
      "inputs": [],
      "name": "symbol",
      "outputs": [
        {
          "internalType": "string",
          "name": "",
          "type": "string"
        }
      ],
      "stateMutability": "view",
      "type": "function"
    },
    {
      "inputs": [
        {
          "internalType": "uint256",
          "name": "",
          "type": "uint256"
        }
      ],
      "name": "tbooks",
      "outputs": [
        {
          "internalType": "uint256",
          "name": "tbsn",
          "type": "uint256"
        },
        {
          "internalType": "address",
          "name": "author",
          "type": "address"
        },
        {
          "internalType": "uint256",
          "name": "total_copies",
          "type": "uint256"
        },
        {
          "internalType": "uint256",
          "name": "current_copies",
          "type": "uint256"
        }
      ],
      "stateMutability": "view",
      "type": "function"
    },
    {
      "inputs": [
        {
          "internalType": "uint256",
          "name": "tokenId",
          "type": "uint256"
        }
      ],
      "name": "tokenURI",
      "outputs": [
        {
          "internalType": "string",
          "name": "",
          "type": "string"
        }
      ],
      "stateMutability": "view",
      "type": "function"
    },
    {
      "inputs": [
        {
          "internalType": "address",
          "name": "from",
          "type": "address"
        },
        {
          "internalType": "address",
          "name": "to",
          "type": "address"
        },
        {
          "internalType": "uint256",
          "name": "tokenId",
          "type": "uint256"
        }
      ],
      "name": "transferFrom",
      "outputs": [],
      "stateMutability": "nonpayable",
      "type": "function"
    },
    {
      "inputs": [
        {
          "internalType": "address",
          "name": "newOwner",
          "type": "address"
        }
      ],
      "name": "transferOwnership",
      "outputs": [],
      "stateMutability": "nonpayable",
      "type": "function"
    }
  ],
  "bytecode": "0x60806040523480156200001157600080fd5b5060405162003df138038062003df1833981810160405281019062000037919062000288565b806040518060400160405280600581526020017f54426f6f6b0000000000000000000000000000000000000000000000000000008152506040518060400160405280600381526020017f54424b00000000000000000000000000000000000000000000000000000000008152508160009081620000b5919062000534565b508060019081620000c7919062000534565b505050600073ffffffffffffffffffffffffffffffffffffffff168173ffffffffffffffffffffffffffffffffffffffff16036200013f5760006040517f1e4fbdf70000000000000000000000000000000000000000000000000000000081526004016200013691906200062c565b60405180910390fd5b62000150816200015860201b60201c565b505062000649565b6000600660009054906101000a900473ffffffffffffffffffffffffffffffffffffffff16905081600660006101000a81548173ffffffffffffffffffffffffffffffffffffffff021916908373ffffffffffffffffffffffffffffffffffffffff1602179055508173ffffffffffffffffffffffffffffffffffffffff168173ffffffffffffffffffffffffffffffffffffffff167f8be0079c531659141344cd1fd0a4f28419497f9722a3daafe3b4186f6b6457e060405160405180910390a35050565b600080fd5b600073ffffffffffffffffffffffffffffffffffffffff82169050919050565b6000620002508262000223565b9050919050565b620002628162000243565b81146200026e57600080fd5b50565b600081519050620002828162000257565b92915050565b600060208284031215620002a157620002a06200021e565b5b6000620002b18482850162000271565b91505092915050565b600081519050919050565b7f4e487b7100000000000000000000000000000000000000000000000000000000600052604160045260246000fd5b7f4e487b7100000000000000000000000000000000000000000000000000000000600052602260045260246000fd5b600060028204905060018216806200033c57607f821691505b602082108103620003525762000351620002f4565b5b50919050565b60008190508160005260206000209050919050565b60006020601f8301049050919050565b600082821b905092915050565b600060088302620003bc7fffffffffffffffffffffffffffffffffffffffffffffffffffffffffffffffff826200037d565b620003c886836200037d565b95508019841693508086168417925050509392505050565b6000819050919050565b6000819050919050565b6000620004156200040f6200040984620003e0565b620003ea565b620003e0565b9050919050565b6000819050919050565b6200043183620003f4565b6200044962000440826200041c565b8484546200038a565b825550505050565b600090565b6200046062000451565b6200046d81848462000426565b505050565b5b8181101562000495576200048960008262000456565b60018101905062000473565b5050565b601f821115620004e457620004ae8162000358565b620004b9846200036d565b81016020851015620004c9578190505b620004e1620004d8856200036d565b83018262000472565b50505b505050565b600082821c905092915050565b60006200050960001984600802620004e9565b1980831691505092915050565b6000620005248383620004f6565b9150826002028217905092915050565b6200053f82620002ba565b67ffffffffffffffff8111156200055b576200055a620002c5565b5b62000567825462000323565b6200057482828562000499565b600060209050601f831160018114620005ac576000841562000597578287015190505b620005a3858262000516565b86555062000613565b601f198416620005bc8662000358565b60005b82811015620005e657848901518255600182019150602085019450602081019050620005bf565b8683101562000606578489015162000602601f891682620004f6565b8355505b6001600288020188555050505b505050505050565b620006268162000243565b82525050565b60006020820190506200064360008301846200061b565b92915050565b61379880620006596000396000f3fe6080604052600436106101815760003560e01c8063715018a6116100d1578063b88d4fde1161008a578063e37af1f511610064578063e37af1f5146105c2578063e985e9c5146105eb578063f2fde38b14610628578063f86325ed1461065157610181565b8063b88d4fde1461051f578063c55d0f5614610548578063c87b56dd1461058557610181565b8063715018a6146104425780637d595352146104595780638da5cb5b1461048457806395d89b41146104af578063a22cb465146104da578063add8462e1461050357610181565b80632e21bacd1161013e578063558dae1011610118578063558dae101461034e5780635df815aa1461038b5780636352211e146103c857806370a082311461040557610181565b80632e21bacd146102ba57806342842e0e146102e55780634ae541b71461030e57610181565b806301ffc9a71461018657806306fdde03146101c3578063081812fc146101ee578063095ea7b31461022b5780631b923ce71461025457806323b872dd14610291575b600080fd5b34801561019257600080fd5b506101ad60048036038101906101a89190612948565b61067c565b6040516101ba9190612990565b60405180910390f35b3480156101cf57600080fd5b506101d861075e565b6040516101e59190612a3b565b60405180910390f35b3480156101fa57600080fd5b5061021560048036038101906102109190612a93565b6107f0565b6040516102229190612b01565b60405180910390f35b34801561023757600080fd5b50610252600480360381019061024d9190612b48565b61080c565b005b34801561026057600080fd5b5061027b60048036038101906102769190612b88565b610822565b6040516102889190612bd7565b60405180910390f35b34801561029d57600080fd5b506102b860048036038101906102b39190612bf2565b610845565b005b3480156102c657600080fd5b506102cf610947565b6040516102dc9190612d03565b60405180910390f35b3480156102f157600080fd5b5061030c60048036038101906103079190612bf2565b610958565b005b34801561031a57600080fd5b5061033560048036038101906103309190612a93565b610978565b6040516103459493929190612d25565b60405180910390f35b34801561035a57600080fd5b5061037560048036038101906103709190612d6a565b6109c8565b6040516103829190612d03565b60405180910390f35b34801561039757600080fd5b506103b260048036038101906103ad9190612d6a565b610a18565b6040516103bf9190612d03565b60405180910390f35b3480156103d457600080fd5b506103ef60048036038101906103ea9190612a93565b610a68565b6040516103fc9190612b01565b60405180910390f35b34801561041157600080fd5b5061042c60048036038101906104279190612d6a565b610a7a565b6040516104399190612bd7565b60405180910390f35b34801561044e57600080fd5b50610457610b34565b005b34801561046557600080fd5b5061046e610b48565b60405161047b9190612bd7565b60405180910390f35b34801561049057600080fd5b50610499610b4e565b6040516104a69190612b01565b60405180910390f35b3480156104bb57600080fd5b506104c4610b78565b6040516104d19190612a3b565b60405180910390f35b3480156104e657600080fd5b5061050160048036038101906104fc9190612dc3565b610c0a565b005b61051d60048036038101906105189190612a93565b610c20565b005b34801561052b57600080fd5b5061054660048036038101906105419190612f38565b610efd565b005b34801561055457600080fd5b5061056f600480360381019061056a9190612a93565b61101d565b60405161057c9190612bd7565b60405180910390f35b34801561059157600080fd5b506105ac60048036038101906105a79190612a93565b611060565b6040516105b99190612a3b565b60405180910390f35b3480156105ce57600080fd5b506105e960048036038101906105e49190612ff9565b6110c9565b005b3480156105f757600080fd5b50610612600480360381019061060d919061304c565b611368565b60405161061f9190612990565b60405180910390f35b34801561063457600080fd5b5061064f600480360381019061064a9190612d6a565b6113fc565b005b34801561065d57600080fd5b50610666611482565b6040516106739190612bd7565b60405180910390f35b60007f80ac58cd000000000000000000000000000000000000000000000000000000007bffffffffffffffffffffffffffffffffffffffffffffffffffffffff1916827bffffffffffffffffffffffffffffffffffffffffffffffffffffffff1916148061074757507f5b5e139f000000000000000000000000000000000000000000000000000000007bffffffffffffffffffffffffffffffffffffffffffffffffffffffff1916827bffffffffffffffffffffffffffffffffffffffffffffffffffffffff1916145b8061075757506107568261148d565b5b9050919050565b60606000805461076d906130bb565b80601f0160208091040260200160405190810160405280929190818152602001828054610799906130bb565b80156107e65780601f106107bb576101008083540402835291602001916107e6565b820191906000526020600020905b8154815290600101906020018083116107c957829003601f168201915b5050505050905090565b60006107fb826114f7565b506108058261157f565b9050919050565b61081e82826108196115bc565b6115c4565b5050565b60008161271084610833919061311b565b61083d919061315d565b905092915050565b600073ffffffffffffffffffffffffffffffffffffffff168273ffffffffffffffffffffffffffffffffffffffff16036108b75760006040517f64a0ae920000000000000000000000000000000000000000000000000000000081526004016108ae9190612b01565b60405180910390fd5b60006108cb83836108c66115bc565b6115d6565b90508373ffffffffffffffffffffffffffffffffffffffff168173ffffffffffffffffffffffffffffffffffffffff1614610941578382826040517f64283d7b00000000000000000000000000000000000000000000000000000000815260040161093893929190613191565b60405180910390fd5b50505050565b606061095360086117f0565b905090565b61097383838360405180602001604052806000815250610efd565b505050565b60076020528060005260406000206000915090508060000154908060010160009054906101000a900473ffffffffffffffffffffffffffffffffffffffff16908060020154908060030154905084565b6060610a11600a60008473ffffffffffffffffffffffffffffffffffffffff1673ffffffffffffffffffffffffffffffffffffffff1681526020019081526020016000206117f0565b9050919050565b6060610a61600b60008473ffffffffffffffffffffffffffffffffffffffff1673ffffffffffffffffffffffffffffffffffffffff1681526020019081526020016000206117f0565b9050919050565b6000610a73826114f7565b9050919050565b60008073ffffffffffffffffffffffffffffffffffffffff168273ffffffffffffffffffffffffffffffffffffffff1603610aed5760006040517f89c62b64000000000000000000000000000000000000000000000000000000008152600401610ae49190612b01565b60405180910390fd5b600360008373ffffffffffffffffffffffffffffffffffffffff1673ffffffffffffffffffffffffffffffffffffffff168152602001908152602001600020549050919050565b610b3c611811565b610b466000611898565b565b61271081565b6000600660009054906101000a900473ffffffffffffffffffffffffffffffffffffffff16905090565b606060018054610b87906130bb565b80601f0160208091040260200160405190810160405280929190818152602001828054610bb3906130bb565b8015610c005780601f10610bd557610100808354040283529160200191610c00565b820191906000526020600020905b815481529060010190602001808311610be357829003601f168201915b5050505050905090565b610c1c610c156115bc565b838361195e565b5050565b600060076000838152602001908152602001600020905081816000015414610c7d576040517f08c379a0000000000000000000000000000000000000000000000000000000008152600401610c7490613214565b60405180910390fd5b806002015460018260030154610c93919061315d565b10610cd3576040517f08c379a0000000000000000000000000000000000000000000000000000000008152600401610cca90613280565b60405180910390fd5b6000610cde8361101d565b905080341015610d23576040517f08c379a0000000000000000000000000000000000000000000000000000000008152600401610d1a906132ec565b60405180910390fd5b6000610d3f8460018560030154610d3a919061315d565b610822565b9050610d806040518060400160405280600a81526020017f546f6b656e49442025730000000000000000000000000000000000000000000081525082611acd565b610d8a3382611b69565b610ddb81600b60003373ffffffffffffffffffffffffffffffffffffffff1673ffffffffffffffffffffffffffffffffffffffff168152602001908152602001600020611b8790919063ffffffff16565b50826003016000815480929190610df19061330c565b91905055506000610e4982600b60003373ffffffffffffffffffffffffffffffffffffffff1673ffffffffffffffffffffffffffffffffffffffff168152602001908152602001600020611ba190919063ffffffff16565b9050610e8b6040518060400160405280601581526020017f55736572202573206f776e7320636f70793a20257300000000000000000000008152503383611bbb565b8360010160009054906101000a900473ffffffffffffffffffffffffffffffffffffffff1673ffffffffffffffffffffffffffffffffffffffff166108fc349081150290604051600060405180830381858888f19350505050158015610ef5573d6000803e3d6000fd5b505050505050565b610f0984848484611c5a565b600073ffffffffffffffffffffffffffffffffffffffff168473ffffffffffffffffffffffffffffffffffffffff1614610f9057610f8e82600b60008773ffffffffffffffffffffffffffffffffffffffff1673ffffffffffffffffffffffffffffffffffffffff168152602001908152602001600020611c7790919063ffffffff16565b505b600073ffffffffffffffffffffffffffffffffffffffff168373ffffffffffffffffffffffffffffffffffffffff16146110175761101582600b60008673ffffffffffffffffffffffffffffffffffffffff1673ffffffffffffffffffffffffffffffffffffffff168152602001908152602001600020611b8790919063ffffffff16565b505b50505050565b60008060076000848152602001908152602001600020600301549050600181611046919061315d565b662386f26fc10000611058919061311b565b915050919050565b606061106b826114f7565b506000611076611c91565b9050600081511161109657604051806020016040528060008152506110c1565b806110a084611ca8565b6040516020016110b1929190613390565b6040516020818303038152906040525b915050919050565b61271082111561110e576040517f08c379a000000000000000000000000000000000000000000000000000000000815260040161110590613400565b60405180910390fd5b611122836008611ba190919063ffffffff16565b15611162576040517f08c379a00000000000000000000000000000000000000000000000000000000081526004016111599061346c565b60405180910390fd5b3373ffffffffffffffffffffffffffffffffffffffff16611181610b4e565b73ffffffffffffffffffffffffffffffffffffffff16146111d7576040517f08c379a00000000000000000000000000000000000000000000000000000000081526004016111ce906134d8565b60405180910390fd5b600060405180608001604052808581526020018373ffffffffffffffffffffffffffffffffffffffff1681526020018481526020016000815250905080600760008681526020019081526020016000206000820151816000015560208201518160010160006101000a81548173ffffffffffffffffffffffffffffffffffffffff021916908373ffffffffffffffffffffffffffffffffffffffff16021790555060408201518160020155606082015181600301559050506112a3846008611b8790919063ffffffff16565b506112f584600a60008573ffffffffffffffffffffffffffffffffffffffff1673ffffffffffffffffffffffffffffffffffffffff168152602001908152602001600020611b8790919063ffffffff16565b506000611303856000610822565b905061130f3382611b69565b61136081600b60008673ffffffffffffffffffffffffffffffffffffffff1673ffffffffffffffffffffffffffffffffffffffff168152602001908152602001600020611b8790919063ffffffff16565b505050505050565b6000600560008473ffffffffffffffffffffffffffffffffffffffff1673ffffffffffffffffffffffffffffffffffffffff16815260200190815260200160002060008373ffffffffffffffffffffffffffffffffffffffff1673ffffffffffffffffffffffffffffffffffffffff16815260200190815260200160002060009054906101000a900460ff16905092915050565b611404611811565b600073ffffffffffffffffffffffffffffffffffffffff168173ffffffffffffffffffffffffffffffffffffffff16036114765760006040517f1e4fbdf700000000000000000000000000000000000000000000000000000000815260040161146d9190612b01565b60405180910390fd5b61147f81611898565b50565b662386f26fc1000081565b60007f01ffc9a7000000000000000000000000000000000000000000000000000000007bffffffffffffffffffffffffffffffffffffffffffffffffffffffff1916827bffffffffffffffffffffffffffffffffffffffffffffffffffffffff1916149050919050565b60008061150383611d76565b9050600073ffffffffffffffffffffffffffffffffffffffff168173ffffffffffffffffffffffffffffffffffffffff160361157657826040517f7e27328900000000000000000000000000000000000000000000000000000000815260040161156d9190612bd7565b60405180910390fd5b80915050919050565b60006004600083815260200190815260200160002060009054906101000a900473ffffffffffffffffffffffffffffffffffffffff169050919050565b600033905090565b6115d18383836001611db3565b505050565b6000806115e284611d76565b9050600073ffffffffffffffffffffffffffffffffffffffff168373ffffffffffffffffffffffffffffffffffffffff161461162457611623818486611f78565b5b600073ffffffffffffffffffffffffffffffffffffffff168173ffffffffffffffffffffffffffffffffffffffff16146116b557611666600085600080611db3565b6001600360008373ffffffffffffffffffffffffffffffffffffffff1673ffffffffffffffffffffffffffffffffffffffff168152602001908152602001600020600082825403925050819055505b600073ffffffffffffffffffffffffffffffffffffffff168573ffffffffffffffffffffffffffffffffffffffff1614611738576001600360008773ffffffffffffffffffffffffffffffffffffffff1673ffffffffffffffffffffffffffffffffffffffff168152602001908152602001600020600082825401925050819055505b846002600086815260200190815260200160002060006101000a81548173ffffffffffffffffffffffffffffffffffffffff021916908373ffffffffffffffffffffffffffffffffffffffff160217905550838573ffffffffffffffffffffffffffffffffffffffff168273ffffffffffffffffffffffffffffffffffffffff167fddf252ad1be2c89b69c2b068fc378daa952ba7f163c4a11628f55a4df523b3ef60405160405180910390a4809150509392505050565b606060006118008360000161203c565b905060608190508092505050919050565b6118196115bc565b73ffffffffffffffffffffffffffffffffffffffff16611837610b4e565b73ffffffffffffffffffffffffffffffffffffffff16146118965761185a6115bc565b6040517f118cdaa700000000000000000000000000000000000000000000000000000000815260040161188d9190612b01565b60405180910390fd5b565b6000600660009054906101000a900473ffffffffffffffffffffffffffffffffffffffff16905081600660006101000a81548173ffffffffffffffffffffffffffffffffffffffff021916908373ffffffffffffffffffffffffffffffffffffffff1602179055508173ffffffffffffffffffffffffffffffffffffffff168173ffffffffffffffffffffffffffffffffffffffff167f8be0079c531659141344cd1fd0a4f28419497f9722a3daafe3b4186f6b6457e060405160405180910390a35050565b600073ffffffffffffffffffffffffffffffffffffffff168273ffffffffffffffffffffffffffffffffffffffff16036119cf57816040517f5b08ba180000000000000000000000000000000000000000000000000000000081526004016119c69190612b01565b60405180910390fd5b80600560008573ffffffffffffffffffffffffffffffffffffffff1673ffffffffffffffffffffffffffffffffffffffff16815260200190815260200160002060008473ffffffffffffffffffffffffffffffffffffffff1673ffffffffffffffffffffffffffffffffffffffff16815260200190815260200160002060006101000a81548160ff0219169083151502179055508173ffffffffffffffffffffffffffffffffffffffff168373ffffffffffffffffffffffffffffffffffffffff167f17307eab39ab6107e8899845ad3d59bd9653f200f220920489ca2b5937696c3183604051611ac09190612990565b60405180910390a3505050565b611b658282604051602401611ae39291906134f8565b6040516020818303038152906040527fb60e72cc000000000000000000000000000000000000000000000000000000007bffffffffffffffffffffffffffffffffffffffffffffffffffffffff19166020820180517bffffffffffffffffffffffffffffffffffffffffffffffffffffffff8381831617835250505050612098565b5050565b611b838282604051806020016040528060008152506120b2565b5050565b6000611b99836000018360001b6120ce565b905092915050565b6000611bb3836000018360001b61213e565b905092915050565b611c55838383604051602401611bd393929190613528565b6040516020818303038152906040527fc91d5ed4000000000000000000000000000000000000000000000000000000007bffffffffffffffffffffffffffffffffffffffffffffffffffffffff19166020820180517bffffffffffffffffffffffffffffffffffffffffffffffffffffffff8381831617835250505050612098565b505050565b611c65848484612161565b611c71848484846122ce565b50505050565b6000611c89836000018360001b612485565b905092915050565b606060405180602001604052806000815250905090565b606060006001611cb784612599565b01905060008167ffffffffffffffff811115611cd657611cd5612e0d565b5b6040519080825280601f01601f191660200182016040528015611d085781602001600182028036833780820191505090505b509050600082602001820190505b600115611d6b578080600190039150507f3031323334353637383961626364656600000000000000000000000000000000600a86061a8153600a8581611d5f57611d5e613566565b5b04945060008503611d16575b819350505050919050565b60006002600083815260200190815260200160002060009054906101000a900473ffffffffffffffffffffffffffffffffffffffff169050919050565b8080611dec5750600073ffffffffffffffffffffffffffffffffffffffff168273ffffffffffffffffffffffffffffffffffffffff1614155b15611f20576000611dfc846114f7565b9050600073ffffffffffffffffffffffffffffffffffffffff168373ffffffffffffffffffffffffffffffffffffffff1614158015611e6757508273ffffffffffffffffffffffffffffffffffffffff168173ffffffffffffffffffffffffffffffffffffffff1614155b8015611e7a5750611e788184611368565b155b15611ebc57826040517fa9fbf51f000000000000000000000000000000000000000000000000000000008152600401611eb39190612b01565b60405180910390fd5b8115611f1e57838573ffffffffffffffffffffffffffffffffffffffff168273ffffffffffffffffffffffffffffffffffffffff167f8c5be1e5ebec7d5bd14f71427d1e84f3dd0314c0f7b2291e5b200ac8c7c3b92560405160405180910390a45b505b836004600085815260200190815260200160002060006101000a81548173ffffffffffffffffffffffffffffffffffffffff021916908373ffffffffffffffffffffffffffffffffffffffff16021790555050505050565b611f838383836126ec565b61203757600073ffffffffffffffffffffffffffffffffffffffff168373ffffffffffffffffffffffffffffffffffffffff1603611ff857806040517f7e273289000000000000000000000000000000000000000000000000000000008152600401611fef9190612bd7565b60405180910390fd5b81816040517f177e802f00000000000000000000000000000000000000000000000000000000815260040161202e929190613595565b60405180910390fd5b505050565b60608160000180548060200260200160405190810160405280929190818152602001828054801561208c57602002820191906000526020600020905b815481526020019060010190808311612078575b50505050509050919050565b6120af816120a76127ad6127ce565b63ffffffff16565b50565b6120bc83836127d9565b6120c960008484846122ce565b505050565b60006120da838361213e565b612133578260000182908060018154018082558091505060019003906000526020600020016000909190919091505582600001805490508360010160008481526020019081526020016000208190555060019050612138565b600090505b92915050565b600080836001016000848152602001908152602001600020541415905092915050565b600073ffffffffffffffffffffffffffffffffffffffff168273ffffffffffffffffffffffffffffffffffffffff16036121d35760006040517f64a0ae920000000000000000000000000000000000000000000000000000000081526004016121ca9190612b01565b60405180910390fd5b60006121e1838360006115d6565b9050600073ffffffffffffffffffffffffffffffffffffffff168173ffffffffffffffffffffffffffffffffffffffff160361225457816040517f7e27328900000000000000000000000000000000000000000000000000000000815260040161224b9190612bd7565b60405180910390fd5b8373ffffffffffffffffffffffffffffffffffffffff168173ffffffffffffffffffffffffffffffffffffffff16146122c8578382826040517f64283d7b0000000000000000000000000000000000000000000000000000000081526004016122bf93929190613191565b60405180910390fd5b50505050565b60008373ffffffffffffffffffffffffffffffffffffffff163b111561247f578273ffffffffffffffffffffffffffffffffffffffff1663150b7a026123126115bc565b8685856040518563ffffffff1660e01b81526004016123349493929190613613565b6020604051808303816000875af192505050801561237057506040513d601f19601f8201168201806040525081019061236d9190613674565b60015b6123f4573d80600081146123a0576040519150601f19603f3d011682016040523d82523d6000602084013e6123a5565b606091505b5060008151036123ec57836040517f64a0ae920000000000000000000000000000000000000000000000000000000081526004016123e39190612b01565b60405180910390fd5b805181602001fd5b63150b7a0260e01b7bffffffffffffffffffffffffffffffffffffffffffffffffffffffff1916817bffffffffffffffffffffffffffffffffffffffffffffffffffffffff19161461247d57836040517f64a0ae920000000000000000000000000000000000000000000000000000000081526004016124749190612b01565b60405180910390fd5b505b50505050565b6000808360010160008481526020019081526020016000205490506000811461258d5760006001826124b791906136a1565b90506000600186600001805490506124cf91906136a1565b905080821461253e5760008660000182815481106124f0576124ef6136d5565b5b9060005260206000200154905080876000018481548110612514576125136136d5565b5b90600052602060002001819055508387600101600083815260200190815260200160002081905550505b8560000180548061255257612551613704565b5b600190038181906000526020600020016000905590558560010160008681526020019081526020016000206000905560019350505050612593565b60009150505b92915050565b600080600090507a184f03e93ff9f4daa797ed6e38ed64bf6a1f01000000000000000083106125f7577a184f03e93ff9f4daa797ed6e38ed64bf6a1f01000000000000000083816125ed576125ec613566565b5b0492506040810190505b6d04ee2d6d415b85acef81000000008310612634576d04ee2d6d415b85acef8100000000838161262a57612629613566565b5b0492506020810190505b662386f26fc10000831061266357662386f26fc10000838161265957612658613566565b5b0492506010810190505b6305f5e100831061268c576305f5e100838161268257612681613566565b5b0492506008810190505b61271083106126b15761271083816126a7576126a6613566565b5b0492506004810190505b606483106126d457606483816126ca576126c9613566565b5b0492506002810190505b600a83106126e3576001810190505b80915050919050565b60008073ffffffffffffffffffffffffffffffffffffffff168373ffffffffffffffffffffffffffffffffffffffff16141580156127a457508273ffffffffffffffffffffffffffffffffffffffff168473ffffffffffffffffffffffffffffffffffffffff16148061276557506127648484611368565b5b806127a357508273ffffffffffffffffffffffffffffffffffffffff1661278b8361157f565b73ffffffffffffffffffffffffffffffffffffffff16145b5b90509392505050565b60006a636f6e736f6c652e6c6f679050600080835160208501845afa505050565b6128d2819050919050565b600073ffffffffffffffffffffffffffffffffffffffff168273ffffffffffffffffffffffffffffffffffffffff160361284b5760006040517f64a0ae920000000000000000000000000000000000000000000000000000000081526004016128429190612b01565b60405180910390fd5b6000612859838360006115d6565b9050600073ffffffffffffffffffffffffffffffffffffffff168173ffffffffffffffffffffffffffffffffffffffff16146128cd5760006040517f73c6ac6e0000000000000000000000000000000000000000000000000000000081526004016128c49190612b01565b60405180910390fd5b505050565b6128da613733565b565b6000604051905090565b600080fd5b600080fd5b60007fffffffff0000000000000000000000000000000000000000000000000000000082169050919050565b612925816128f0565b811461293057600080fd5b50565b6000813590506129428161291c565b92915050565b60006020828403121561295e5761295d6128e6565b5b600061296c84828501612933565b91505092915050565b60008115159050919050565b61298a81612975565b82525050565b60006020820190506129a56000830184612981565b92915050565b600081519050919050565b600082825260208201905092915050565b60005b838110156129e55780820151818401526020810190506129ca565b60008484015250505050565b6000601f19601f8301169050919050565b6000612a0d826129ab565b612a1781856129b6565b9350612a278185602086016129c7565b612a30816129f1565b840191505092915050565b60006020820190508181036000830152612a558184612a02565b905092915050565b6000819050919050565b612a7081612a5d565b8114612a7b57600080fd5b50565b600081359050612a8d81612a67565b92915050565b600060208284031215612aa957612aa86128e6565b5b6000612ab784828501612a7e565b91505092915050565b600073ffffffffffffffffffffffffffffffffffffffff82169050919050565b6000612aeb82612ac0565b9050919050565b612afb81612ae0565b82525050565b6000602082019050612b166000830184612af2565b92915050565b612b2581612ae0565b8114612b3057600080fd5b50565b600081359050612b4281612b1c565b92915050565b60008060408385031215612b5f57612b5e6128e6565b5b6000612b6d85828601612b33565b9250506020612b7e85828601612a7e565b9150509250929050565b60008060408385031215612b9f57612b9e6128e6565b5b6000612bad85828601612a7e565b9250506020612bbe85828601612a7e565b9150509250929050565b612bd181612a5d565b82525050565b6000602082019050612bec6000830184612bc8565b92915050565b600080600060608486031215612c0b57612c0a6128e6565b5b6000612c1986828701612b33565b9350506020612c2a86828701612b33565b9250506040612c3b86828701612a7e565b9150509250925092565b600081519050919050565b600082825260208201905092915050565b6000819050602082019050919050565b612c7a81612a5d565b82525050565b6000612c8c8383612c71565b60208301905092915050565b6000602082019050919050565b6000612cb082612c45565b612cba8185612c50565b9350612cc583612c61565b8060005b83811015612cf6578151612cdd8882612c80565b9750612ce883612c98565b925050600181019050612cc9565b5085935050505092915050565b60006020820190508181036000830152612d1d8184612ca5565b905092915050565b6000608082019050612d3a6000830187612bc8565b612d476020830186612af2565b612d546040830185612bc8565b612d616060830184612bc8565b95945050505050565b600060208284031215612d8057612d7f6128e6565b5b6000612d8e84828501612b33565b91505092915050565b612da081612975565b8114612dab57600080fd5b50565b600081359050612dbd81612d97565b92915050565b60008060408385031215612dda57612dd96128e6565b5b6000612de885828601612b33565b9250506020612df985828601612dae565b9150509250929050565b600080fd5b600080fd5b7f4e487b7100000000000000000000000000000000000000000000000000000000600052604160045260246000fd5b612e45826129f1565b810181811067ffffffffffffffff82111715612e6457612e63612e0d565b5b80604052505050565b6000612e776128dc565b9050612e838282612e3c565b919050565b600067ffffffffffffffff821115612ea357612ea2612e0d565b5b612eac826129f1565b9050602081019050919050565b82818337600083830152505050565b6000612edb612ed684612e88565b612e6d565b905082815260208101848484011115612ef757612ef6612e08565b5b612f02848285612eb9565b509392505050565b600082601f830112612f1f57612f1e612e03565b5b8135612f2f848260208601612ec8565b91505092915050565b60008060008060808587031215612f5257612f516128e6565b5b6000612f6087828801612b33565b9450506020612f7187828801612b33565b9350506040612f8287828801612a7e565b925050606085013567ffffffffffffffff811115612fa357612fa26128eb565b5b612faf87828801612f0a565b91505092959194509250565b6000612fc682612ac0565b9050919050565b612fd681612fbb565b8114612fe157600080fd5b50565b600081359050612ff381612fcd565b92915050565b600080600060608486031215613012576130116128e6565b5b600061302086828701612a7e565b935050602061303186828701612a7e565b925050604061304286828701612fe4565b9150509250925092565b60008060408385031215613063576130626128e6565b5b600061307185828601612b33565b925050602061308285828601612b33565b9150509250929050565b7f4e487b7100000000000000000000000000000000000000000000000000000000600052602260045260246000fd5b600060028204905060018216806130d357607f821691505b6020821081036130e6576130e561308c565b5b50919050565b7f4e487b7100000000000000000000000000000000000000000000000000000000600052601160045260246000fd5b600061312682612a5d565b915061313183612a5d565b925082820261313f81612a5d565b91508282048414831517613156576131556130ec565b5b5092915050565b600061316882612a5d565b915061317383612a5d565b925082820190508082111561318b5761318a6130ec565b5b92915050565b60006060820190506131a66000830186612af2565b6131b36020830185612bc8565b6131c06040830184612af2565b949350505050565b7f54426f6f6b20646f6573206e6f74206578697374000000000000000000000000600082015250565b60006131fe6014836129b6565b9150613209826131c8565b602082019050919050565b6000602082019050818103600083015261322d816131f1565b9050919050565b7f4e6f206d6f726520636f706965732063616e206265206d696e74656400000000600082015250565b600061326a601c836129b6565b915061327582613234565b602082019050919050565b600060208201905081810360008301526132998161325d565b9050919050565b7f496e73756666696369656e74207061796d656e74000000000000000000000000600082015250565b60006132d66014836129b6565b91506132e1826132a0565b602082019050919050565b60006020820190508181036000830152613305816132c9565b9050919050565b600061331782612a5d565b91507fffffffffffffffffffffffffffffffffffffffffffffffffffffffffffffffff8203613349576133486130ec565b5b600182019050919050565b600081905092915050565b600061336a826129ab565b6133748185613354565b93506133848185602086016129c7565b80840191505092915050565b600061339c828561335f565b91506133a8828461335f565b91508190509392505050565b7f43616e6e6f74206578636565642031306b20636f706965730000000000000000600082015250565b60006133ea6018836129b6565b91506133f5826133b4565b602082019050919050565b60006020820190508181036000830152613419816133dd565b9050919050565b7f5442534e20616c72656164792065786973747300000000000000000000000000600082015250565b60006134566013836129b6565b915061346182613420565b602082019050919050565b6000602082019050818103600083015261348581613449565b9050919050565b7f4f776e6572206d75737420626520746865206d6573736167652073656e646572600082015250565b60006134c26020836129b6565b91506134cd8261348c565b602082019050919050565b600060208201905081810360008301526134f1816134b5565b9050919050565b600060408201905081810360008301526135128185612a02565b90506135216020830184612bc8565b9392505050565b600060608201905081810360008301526135428186612a02565b90506135516020830185612af2565b61355e6040830184612981565b949350505050565b7f4e487b7100000000000000000000000000000000000000000000000000000000600052601260045260246000fd5b60006040820190506135aa6000830185612af2565b6135b76020830184612bc8565b9392505050565b600081519050919050565b600082825260208201905092915050565b60006135e5826135be565b6135ef81856135c9565b93506135ff8185602086016129c7565b613608816129f1565b840191505092915050565b60006080820190506136286000830187612af2565b6136356020830186612af2565b6136426040830185612bc8565b818103606083015261365481846135da565b905095945050505050565b60008151905061366e8161291c565b92915050565b60006020828403121561368a576136896128e6565b5b60006136988482850161365f565b91505092915050565b60006136ac82612a5d565b91506136b783612a5d565b92508282039050818111156136cf576136ce6130ec565b5b92915050565b7f4e487b7100000000000000000000000000000000000000000000000000000000600052603260045260246000fd5b7f4e487b7100000000000000000000000000000000000000000000000000000000600052603160045260246000fd5b7f4e487b7100000000000000000000000000000000000000000000000000000000600052605160045260246000fdfea264697066735822122067dff1c3b94d139107ac5c7cd2cbd6572dcebebae08cc1adccf3263d818dc08c64736f6c63430008180033",
  "linkReferences": {},
  "deployedLinkReferences": {}
}